:100000000C9417030C94676C0C9440030C944003FD
:100010000C9450030C9440030C9440030C94400344
:100020000C9440030C9440030C9440030C94400344
:100030000C9440030C94516F0C9440030C944003B7
:100040000C9440030C9440030C9440030C94400324
:100050000C9440030C9440030C9440030C94400314
:100060000C9440030C9440030C9440030C94400304
:10007000EB1FEE1FC6215F275F2744225F27FA226E
:100080005F275F275F270823B2245F27E9245F27C4
:100090003A25D6255F274826872A972A8B2A8F2A32
:1000A000932A972AAC2AA62A9A2AA22A972A972A1A
:1000B000B42AB82AB02AB02AA92A8F2AA751935164
:1000C0009351AD51935193519351935193519351F6
:1000D0009351B551AA5193519351B1519351A2519A
:1000E000AF519351B3519351A451865284528652C9
:1000F0008E528E528E528B528E528E528E528E5203
:100100008E528E528E527E528E5282527C528E521D
:100110008052025CA95CA95C065CA95CA95C2B5CB2
:10012000A95CA95C2E5CA95CA95C4E5CA95CA95C7D
:10013000365CA95CA95C515CA95CA95C665CA95CA5
:10014000A95C7F5C4A6595656F6505660966126600
:1001500016668E672F65260FA2146C09680F400D76
:100160003B0D360D6014550F060E9717980D0710AE
:100170009612190AED09010100041601013416282E
:10018000035004160101041712014690A20603EA67
:100190001612012390A20A039A1623504554534382
:1001A00049494155544F535741502E47454E004100
:1001B00055544F535741502E4C535400FFE20053B7
:1001C000595354454DA0A0A0A0A0A0A0A0A0A0005D
:1001D000000000000000000000000DA0FE0DEDC6B4
:1001E000E534B1FEFF0000000000000A2A04FF66AB
:1001F0000B4F04FF6600000000000303033462009D
:100200009A05046C57000004046C57009C0505DA3D
:1002100057009A0505DA57000304066C57017F055D
:1002200018265800000701E95500360307546300FB
:10023000000317AF5600000508C35C00A90109F1CF
:10024000560057040A0B5B0070040B0B5B01E203C2
:100250000CE75900DC030CE75900FF030DE75900D8
:100260000F040EE7590000040F895B000004108999
:100270005B01000311CD5B00000412CD5B000003A5
:1002800013CD5B00000513CD5B00000314525F002B
:10029000000515445500F40516865500000519B8EB
:1002A0005D001B041A8E5E0000041B1E610000002E
:1002B000000000009F9C0300B0DA04003B9704009C
:1002C000387E0400301B05000E8B050030990600B7
:1002D0008102180896C11809692E010081DD070006
:1002E0003E391700015A090079B90A0169240B0146
:1002F000794D0C01BCB20C0172B20C01EDDA0D02A9
:100300008D3F0E0247C90E0340F10F047E731004A7
:100310005A75110420291104E918110504981105D2
:10032000F54811055613110585E81105CA4E11054A
:10033000F6DB1105ABE41105E56D1105FF30110584
:10034000E7461105532211056AC212060C55120622
:100350005B8213075B2413072170130737D513073C
:1003600035F61307C14314007048150025291600FF
:10037000A6121900920C08007D321A00F46A1B00C4
:1003800000000000000000006B058E057805960552
:100390007805BA05E605CC057805BA050006CC0552
:1003A0001A06400600008A040000A70480204F4B74
:1003B0008100532053435241544348454482080925
:1003C00094959697989B0103999C02039A0220505A
:1003D000524F54454354204F4E9D054944204D49AA
:1003E000534D415443489E9FA0A1A253594E54419E
:1003F0005803A7BE0004464F554E44B2070450525E
:100400004553454E54B34F564552464C4F572049DD
:100410004E2007B4000B4C41524745BC022000203F
:1004200006BD000406BF0020455849535453C00080
:100430002054595045204D49534D41544348C10C17
:10044000424C4F434BC2C30A20545241434B204FAE
:100450005220534543544F52C60C4348414E4E45DB
:100460004CC744495203C80546554C4CCA445249EE
:100470005645040159CD0920080ACE425546464545
:10048000520B534D414C4CCF494D41474520002024
:10049000494E56414C4944E2554E4B4E4F574E2023
:1004A0004452495645434F4445E3434C4F434B2048
:1004B000554E535441424C45FF8046494C4581526C
:1004C00045414482575249544583204552524F5228
:1004D00084204E4F5420854449534B20864F50452D
:1004E0004E875245434F52448850415254495449D3
:1004F0004F4E208953454C45435445448A494C4C02
:100500004547414C8B20544F4F208C4E4F20FF2DA0
:100510006D3634342D616C6E776C736E2D6375732C
:10052000746F6D005344324945432056312E302EAE
:10053000306174656E74646561643000F22C0F3450
:100540007E34372FA22FEE2FC029512AF330F930F5
:10055000E829792D9F2D752F3F31C332433634461C
:10056000696C650046415433320001030507090EEA
:1005700010121416181C1E44454C53455150524736
:1005800055535252454C43424D4449523F3F3F4ED2
:1005900041543431203731203831200101000042EC
:1005A0004C4F434B5320465245452E2020202020BF
:1005B0002020202020202020000000010100002019
:1005C00020202253595354454D2220202020202002
:1005D0002020202020535953202000010401010035
:1005E000001222534432494543202020202020205D
:1005F0002020202220494B203241003132385359EB
:100600005354454D310053595354454D3100130C4B
:10061000140F1706180400130D140F1411003031B5
:100620003233343536373839414243444546112454
:100630001FBECFEFD0E1DEBFCDBF14BE0FB6F89422
:10064000A89580916000886180936000109260009E
:100650000FBE11E0A0E0B1E0E6E7F3EE02C00590C6
:100660000D92A031B107D9F72DE0A0E1B1E001C0B2
:100670001D92AD3CB207E1F70E94E4670C94B9719A
:100680000C94000028E039E040E8880F660F08F479
:10069000842787FB0EF483272A95B9F78F7708956F
:1006A0002F932FB72F933F938F930F9220916B002F
:1006B00020FB4EF4009907C020911C0C223011F44D
:1006C0007BD101C0159A20916B0022FB46F4029960
:1006D00006C020911C0C213011F456D100C00F909F
:1006E0008F913F912F912FBF2F91189500000000FF
:1006F0002A95F1F7089500000895009BFECF089514
:100700000099FECF0895F894FC0188279927169840
:100710001598009B159A029BFCCF2AE2E8DF00B0F7
:1007200001FA85F902FA84F92EE1E0DF00B001FA5E
:1007300087F902FA86F929E1DADF00B001FA81F9D6
:1007400002FA83F92EE1D2DF00B001FA80F902FA51
:1007500082F92EE1CBDF30B12DE0C9DF159A28E117
:10076000C6DF809530837894089532B13F7000FAE7
:1007700036F901FA35F90694069432B90895F894D9
:1007800055E0442309F052604F77662321F062B1AF
:100790006F70606203C062B16F70606415981698E4
:1007A000AADF082E009480B187708517E1F381706D
:1007B000B9F022E19DDFD9DF23E19ADFD6DF25E121
:1007C00095DFD3DF23E194DFD0DF442349F428E130
:1007D0008DDF62B990DF80B180FF02C081FDFBCF69
:1007E00080958170789408950199FECF809522B10B
:1007F0002F7022B9019BFECF7EDF44E032B13F7003
:1008000087FB36F986FB35F9880F880F25E46FDF03
:1008100032B971DF4A9591F72FE36ADF22B12F7069
:10082000206422B908950199FECF22B12F7022B918
:10083000FC01019BFECF2BE05BDF019044E00094C4
:100840002CE155DF32B13F7007FA36F906FA35F977
:10085000000C000C2AE34ADF32B92AE049DF4A954E
:1008600089F727E143DF6A9541F72BE141DF22B1A8
:100870002F70206422B9089532B13F7000FA36F922
:1008800001FA35F932B906940694089530B131FB76
:1008900080F932FB82F90895169A009B07C00199EE
:1008A000FCCF1698009B02C0019BFCCF0895F894E2
:1008B000FC01169A29E11CDF54E00190009444E009
:1008C000DBDF27E114DF4A95D9F715DF00C05A9521
:1008D000A1F732B13F7032B978940895F89488271F
:1008E00028E105DF1598029BFECF29E201DFCEDF6C
:1008F000880F2CE1FDDECADF8295869529E1F8DEBE
:10090000C5DF880F24E1F4DEC1DF159A7894809565
:1009100099270895F894082E15980299FECF029B06
:10092000FECF2FE1E3DEA8DF2DE0E0DEA5DF2DE046
:10093000DDDEA2DF2DE0DADE9FDF20E1D7DE1698D4
:10094000159AD9DE80B18095817078940895F894D5
:10095000082E15980299FECF029BFECF2FE1C6DE2E
:100960008BDF23E1C5DE88DF23E1C2DE85DF23E103
:10097000BFDE82DF20E1BADE1698159ABCDE80B1B8
:10098000809581707894089506D08093220C03D0CE
:1009900080931F0C089524E00299FECF880F30B198
:1009A00031FB80F9029BFECF880F30B131FB80F91B
:1009B0002A9591F78095089506D08093220C03D054
:1009C00080931F0C089522E08295869599DE5EDF64
:1009D000880F93DE5BDF2A95B9F780950895082E7E
:1009E000009422E049DF8CDE47DF87DE2A95D1F7CD
:1009F0000895F8949FEF88274FDF009B14C02EE1E5
:100A000076DE44DF880F24E173DE40DF8295869531
:100A10002EE16DDE3BDF880F24E16ADE37DF23E362
:100A200067DE9927809578940895F894159A009B2D
:100A300016C00299FCCF1598009B11C0029BFCCFF9
:100A4000082E009484E02EE053DE2CE04FDE14DF0D
:100A50008A95D9F725E14BDE169815984CDE7894E7
:100A6000089507FA36F905FA35F932B90895159857
:100A7000169841DE32B13F70009B17C0019BFCCF3E
:100A8000082E25E134DEEDDF000C24E131DEE9DF64
:100A90008295082E23E12ADEE4DF000C24E128DE23
:100AA000E0DF23E325DE8827089581E00895882785
:100AB000029BFECF0299FECF25E21ADE30B132FB57
:100AC00083F931FB84F921E212DE30B132FB85F982
:100AD00031FB86F90895EBDF2EE108DED7DE880FC3
:100AE00024E206DED3DE2BE103DE8095992708950C
:100AF000DEDF22E1FBDDCADE880F26E1F7DDC6DEA0
:100B00002BE1F6DD80959927089516981598F3DD69
:100B10000299FECF32B13F70032E0895F6DF83FBBA
:100B200036F981FB35F929E2E3DD07C0EEDF83FB0F
:100B300036F981FB35F921E1D9DD32B9302D82FB5F
:100B400036F980FB35F926E1D2DD32B98095302DBA
:100B500084FB36F985FB35F928E1C8DD32B9302D43
:100B600086FB36F987FB35F92BE1C0DD32B928E386
:100B7000BEDD08958095C9DF082E2AE0B8DD7CDE51
:100B80002BE0B6DD79DE23E1B3DD76DE20E1AFDDFB
:100B900073DE2DE1ABDD0895B8DF07D082952BE041
:100BA000A6DD03D028E3A3DD0895302D83FB36F9BD
:100BB00081FB35F920E19ADD32B9302D82FB36F91F
:100BC00080FB35F921E294DD32B908958827029B34
:100BD000FECF0299FECF26E289DD58DE880F24E1A0
:100BE00087DD54DE8295869521E282DD4FDE880F17
:100BF0002CE17EDD4BDE23E37BDD99278095089594
:100C00008827029BFECF0299FECF29E270DD3EDEEF
:100C1000880F26E16BDD3ADE8295869526E267DD58
:100C200035DE880F24E264DD31DE23E361DD9927C0
:100C3000809508958827029BFECF0299FECF25E27A
:100C400057DD30B132FB80F931FB81F929E14FDD0D
:100C500030B132FB82F931FB83F929E148DD30B153
:100C600032FB84F931FB85F929E141DD30B132FBFA
:100C700086F931FB87F92DE139DD809599270895B3
:100C8000809543DF082E2AE032DDF6DD2DE02EDDF3
:100C9000F3DD25E12BDDF0DD25E128DDEDDD23E2CF
:100CA00027DD0895F8948095082E1698019BFECFB5
:100CB00027E01CDDE1DD2DE019DDDEDD2DE016DDB8
:100CC000DBDD2DE013DDD8DD21E110DD1598169A6E
:100CD00078940895F894882716980199FECF019B7F
:100CE000FECF2CE104DDD2DD880F24E101DDCEDD75
:100CF0008295869523E2FADCC9DD880F24E1F8DCD1
:100D0000C5DD28E0F5DC169A78948095992708953A
:100D1000F894082E16981598029BFECF22E1E7DC86
:100D2000ABDD2DE0E3DCA8DD2DE0E0DCA5DD2DE092
:100D3000DDDCA2DD28E0DBDC1698159A2DE0D6DCA0
:100D40007894089582E085BD81EE94E090938900C7
:100D50008093880010928500109284001092800089
:100D60008BE080938100EFE6F0E0808182608083F9
:100D70000895811103C01DBC80E503C081E08DBDD5
:100D800082E58CBD089595B19F70906D95B994B131
:100D90009F70906B94B9811103C01DBC80E503C0A6
:100DA00081E08DBD82E58CBD8DB58EB508958EBD7B
:100DB0000DB407FEFDCF8EB508958FEF8EBD0DB437
:100DC00007FEFDCF8EB50895680F791F8617970728
:100DD00089F0411103C0FC01208101C02FEF2EBD1D
:100DE0000DB407FEFDCF2EB5442311F0FC01208386
:100DF0000196ECCF089585B7806885BF85BF0895BB
:100E000083B7817F83BF83B7816083BF089588954F
:100E10000895F894E0E0F0E00995F8940895789446
:100E2000089580E00895CF93DF9390E3899FF001C8
:100E30001124DF01A557B64F8C9180FD15C0EF57E7
:100E4000F64F9F012E5F3F4F8EE2E90119928A957E
:100E5000E9F78C9181608C9384E6848381E197E04B
:100E600096878587908B8787DF91CF910895E1E8FA
:100E7000F9E080E591E0DF019C011D9221503040B6
:100E8000E1F780E191E09183808380E192E091AB92
:100E900080AB80E193E09093E2098093E10980E1E7
:100EA00094E09093120A8093110A80E195E0909368
:100EB000420A8093410A80E196E09093720A8093FF
:100EC000710A87EB9BE09093A20A8093A10A8FE0BE
:100ED0008093A50AEBEAFAE080818D6080628083CE
:100EE00084E699E29093AF0A8093AE0A81E197E09D
:100EF0009093B10A8093B00A0895CF93DF9380E076
:100F000090E020E3289FE001299FD00D1124FE01ED
:100F1000E557F64F208120FD06C00E941307CE0141
:100F20008F57964F09C001968630910551F786E498
:100F30000E945F2980E090E0DF91CF9108950E94A8
:100F40007D07009741F0FC0114822091F20A2F5F87
:100F50002093F20A409A0895A0E0B0E0E2EBF7E0B7
:100F60000C94CB70182F20E030E000E080E090E39C
:100F7000929FF001939FF00D1124E557F64F908159
:100F800090FD07C0811101C0022F8F5F811302C045
:100F900008C080E02F5F3F4F2630310541F78117B1
:100FA00050F080E3089FE0011124CF57D64FE12E87
:100FB000E00EF02E06C086E40E945F2980E090E0FB
:100FC00034C0C02ED12CFE14D1F08F2D0E941307F7
:100FD0008091F20A8F5F8093F20AFE011C82E096F4
:100FE000D68BC58B20E32C9DC0012D9D900D112427
:100FF0008F57964F948B838B128BF394E2CF409A4A
:10100000C601810F911D019720E3289FF001299FC0
:10101000F00D1124EF57F64F168A158A2C9DC0014A
:101020002D9D900D11248F57964FCDB7DEB7E8E078
:101030000C94E770FC01892BC1F024812F30A9F0BA
:10104000928590FF12C09E7F928794FF05C0809189
:10105000F20A80518093F20A243628F48091F20A31
:1010600081508093F20A0E94D4670895CF93DF9352
:10107000EC01EF85F8890995CE010E941A08DF91ED
:10108000CF910895EF92FF920F931F93CF93DF9329
:10109000D82F01E819E0E12CF12CC0E080E38E9D0F
:1010A000F0018F9DF00D1124E557F64F808180FFF0
:1010B0002CC0D1FD05C0D80114968C91843628F53A
:1010C000D2FD0BC080E38E9DF0018F9DF00D1124A9
:1010D000E557F64F808186FD18C0D0FF13C0C111BF
:1010E0000EC0D8011F96ED91FC915097C80109954B
:1010F00021E030E0811105C020E030E002C021E0B5
:1011000030E0C22FC8010E941A08BFEFEB1AFB0A99
:10111000005D1F4FE6E0EE16F10409F0BFCF8C2F03
:10112000CDB7DEB7E6E00C94E970E1E8F9E040E025
:1011300050E090E3949F9001959F300D1124D901C8
:10114000A557B64F9C9190FF07C09481981304C097
:10115000C9018F57964F08954F5F5F4FF096473004
:10116000510539F780E090E00895FC01928594FDE7
:1011700008C0906192878091F20A805F8093F20AA2
:10118000419A0895FC01928594FF0BC09F7E92873F
:101190008091F20A80518093F20A82958F7009F44F
:1011A000419808955FEF560F2BE5829FC0011124EF
:1011B000FC01E555F34F20812F77842F90E02130FB
:1011C00009F442C02430D1F1533228F05CED560FBF
:1011D0002BEA32E002C020E030E0513130F445E14A
:1011E000549F800D911D112433C0652F70E058313C
:1011F00058F461517109E3E1E69FA001E79F500DAA
:1012000011244B595E4F17C05E3158F46851710973
:10121000E2E1E69FA001E79F500D112446515E4F89
:101220000AC06E517109E1E1E69FA001E79F500DF0
:1012300011244A5A5D4F840F951F0AC028E2529F1D
:10124000800D911D11240895252F30E0322F222783
:10125000820F931F08952BE5829FC0011124FC018A
:10126000E555F34F80818F77813019F0843081F01C
:1012700003C080E091E00895643208F06352623167
:1012800050F0693158F06F3160F081E190E00895DD
:1012900088E290E0089585E190E0089583E190E090
:1012A000089582E190E00895E0911307F09114070A
:1012B0000190F081E02D828380958383DB018C9106
:1012C000848311968C91858380EC868308958FE1C9
:1012D0000E945F2981E008958FE10E945F290895AF
:1012E000EF92FF920F931F93CF93DF93F82EE901B4
:1012F00080E091E0F9019C01119221503040E1F72A
:101300008FEF89838F2D0E94D208AC0160E070E0DE
:10131000762F652F542F4427E12C00E011E09E0129
:101320008F2D0E94E035CDB7DEB7E6E00C94E97072
:10133000EF920F931F93CF93C82F8B01E42EFB01E5
:10134000418160810E94D208F8014281F0E24F9F02
:10135000A0011124052E000C660B770BA0E0B0E075
:10136000BA2FA92F982F8827480F591F6A1F7B1F54
:1013700000E210E021ED3AE08C2F0E94E035CF91A1
:101380001F910F91EF9008950F931F93CF93C82F44
:101390008B01FB01418160810E94D208F8014281EA
:1013A000F0E24F9FA0011124052E000C660B770B75
:1013B000A0E0B0E0BA2FA92F982F8827480F591F17
:1013C0006A1F7B1F00E210E021ED3AE08C2F0E94A3
:1013D000A435CF911F910F910895EF92FF920F9333
:1013E0001F93CF93DF937C018A01EB016C96BE01C2
:1013F000FC0180810E94C409811116C040E150E0C7
:1014000060EA70E086ED9AE00E944B71F801A6ED6B
:10141000BAE08191882311F08D93FBCF41E0BE01AA
:10142000F70180810E949809CDB7DEB7E6E00C9401
:10143000E970A2E0B0E0EFE1FAE00C94CB707C013F
:10144000FC01C0808BE5C89EF0011124E555F34FE7
:10145000D080E1E0DE1621F0C7010E94963530C051
:10146000FB018081811104C0F701D582D6823BC087
:101470008F3559F5FB018181811127C0F701468124
:1014800065818C2D0E94D208AC0160E070E0762F5F
:10149000652F542F44274E5D5F4F6F4F7F4F02E003
:1014A00010E09E012F5F3F4F8C2D0E94A4358111CB
:1014B0001BC08981F701811105C080810E946235BE
:1014C000D82E12C085838A810DC0645E7F4F8C2D1B
:1014D0000E94C409811108C08091D40AF701858354
:1014E0008091D50A8683D12C8D2D2296E8E00C942C
:1014F000E770EF92FF920F931F93CF93DF93EC016E
:10150000E881F9811082E881F9818A8181836D897E
:101510004E898F89988D0196988F8F8B611102C0AB
:1015200011E047C0FC888F2D0E94D20828813981A4
:10153000AC0160E070E0762F652F542F4427EE2435
:10154000E39400E011E08F2D0E94E0358111E8CF97
:101550008E010F5E1F4FB8018C890E94C409811152
:10156000DFCF8091D30A80688093D30A8F898093DC
:10157000EF0A8F89988D9093F00A82E58093EA0AAA
:1015800088E08093EB0A8FE18093EC0A1092ED0AD9
:101590001092EE0A41E0B8018C890E949809182F38
:1015A0008111BECF81E197E0988B8F87CE010E9499
:1015B0001A08812FCDB7DEB7E6E00C94E970A0E001
:1015C000B0E0E5EEFAE00C94CB70C82E79018BE523
:1015D000C89EF0011124E555F34F80818F77833049
:1015E00029F08430E9F0813089F42AC0643270F047
:1015F00041110AC070E064527109C62FCC0FC60FAA
:10160000D0E035E3D32E27C0C9EB05C0660F660FC7
:10161000C1E04111C0E0C60FD0E022E1D22E1BC0D4
:10162000693208F04FC0D1E0C1E04111C0E0C65FAF
:10163000862F880F680F660FC60F98E2D92E0BC051
:10164000D62FD695D695D695DE5FC62FC295CC0FF0
:10165000C07EDD24D394A0911307B0911407519656
:101660008C915197C8120AC052969C915297D912E8
:1016700005C053969C915397D917B9F0E091110783
:10168000F0911207309709F1F0931407E0931307D4
:10169000B0931207A09311078189C81239C08289BB
:1016A000D81236C08389D81333C0E0911307F09164
:1016B0001407808191818C0F911DF70191838083A4
:1016C00080E059C06852D2E0AFCF8F3F09F10E944D
:1016D0007D07FC019093120780931107892B09F471
:1016E00046C085E684838FEF818B86ED9DE0908BED
:1016F0008787828580648287809113079091140781
:10170000F0931407E0931307909312078093110747
:101710008091130790911407DC011F96ED91FC91C5
:1017200050970995811121C04D2F6D2D8C2D0E9450
:10173000D208E0911307F091140720813181AC01A8
:1017400060E070E0762F652F542F442700E011E011
:101750008C2D0E94A43581110EC0E0911307F091E9
:101760001407C18AD28AD38BA0CF81E004C080E065
:101770000E945F29CDCFCDB7DEB7E8E00C94E770CB
:10178000A2E0B0E0E6ECFBE00C94CF70182F042F41
:101790001A8219829E012F5F3F4F40E00E94DF0AAC
:1017A00081112FC08BE5189FF0011124E555F34FEF
:1017B0003081202F26952695269589819A8107705C
:1017C000FC01E20FF11D313091F42081822F90E075
:1017D00020E830E0002E02C0359527950A94E2F704
:1017E0002823392381E0232B69F480E00BC080811A
:1017F00090E0002E02C0959587950A94E2F78170DB
:1018000001C08FEF2296E4E00C94EB70A2E0B0E010
:10181000ECE0FCE00C94CE70082FF62E142F0E9402
:10182000C00B87FF02C081E058C0811102C080E078
:1018300054C09E012F5F3F4F40E06F2D802F0E94CC
:10184000DF0A8111F0CFE0911307F0911407928520
:10185000926092879BE5099FF0011124E555F34FB3
:101860002081912F969596959695E981FA8117702A
:10187000E90FF11D213069F420E830E0012E02C0AB
:10188000359527950A94E2F72095908129232083A6
:1018900024C081E090E0012E01C0880F0A94EAF78D
:1018A00080959081892380839E012F5F3F4F41E087
:1018B0006F2D802F0E94DF0A8111B5CFE981FA8157
:1018C0009081992309F4B3CF91509083E09113074D
:1018D000F09114079285926092872296E5E00C942D
:1018E000EA70A2E0B0E0E7E7FCE00C94CB70F82EE1
:1018F000E62E042F0E94C00B87FF02C011E061C0DA
:10190000882311F010E05DC09E012F5F3F4F40E043
:101910006E2D8F2D0E94DF0A182F8111EFCFE091DD
:101920001307F09114078285826082878BE5F89E09
:10193000F0011124E555F34F9081802F869586950F
:101940008695E981FA810770E80FF11D913061F405
:1019500080E890E0002E02C0959587950A94E2F702
:101960009081892B80832DC081E090E0002E01C002
:10197000880F0A94EAF79081892B80839E012F5F5C
:101980003F4F41E06E2D8F2D0E94DF0A182F8111ED
:10199000B5CFC980DA80F60100816E2D8F2D0E94AF
:1019A0002B09202F30E02817390708F0ABCF0F5F45
:1019B000F6010083E0911307F0911407828582609D
:1019C0008287812F2296E8E00C94E770A0E0B0E0D7
:1019D000ECEEFCE00C94CA70FC017B01B42EC22F2B
:1019E000D081CD2ED12C8BE5D89FD0011124A555C7
:1019F000B34F8C91813011F4468101C040E0658184
:101A00008D2F0E94D208AC010C2F10E08BE58C9D2D
:101A1000F0018D9DF00D1124EE5AFF4FEB0DF11DDD
:101A2000E65AF34F808160E070E0762F652F542FE7
:101A30004427480F511D611D711D97018D2F0E9474
:101A4000A43581110DC02FEF2C0FF701E20FF11D0E
:101A50009081903A11F490E290832150B0F701C048
:101A600081E0CDB7DEB7E9E00C94E67025E044E014
:101A70000E94E60C089520E143E00E94E60C0895E0
:101A8000CF92DF92FF920F931F93CF93DF93CDB747
:101A9000DEB727970FB6F894DEBF0FBECDBF6B0140
:101AA0009BE5899FF0011124DF01A555B34FFC9000
:101AB000A1E0FA120CC000E110E09B0144E051E00B
:101AC00060E070E00E94A4358823A1F022C08983E1
:101AD000EB57F34F86E0DE01129601900D928A9546
:101AE000E1F7CE0101960E943B0D882319F0FF24F7
:101AF000F3940FC0F6013F96D60150961C92EC1558
:101B0000FD0531F08081803219F431971182F7CFD1
:101B1000F12C8F2D27960FB6F894DEBF0FBECDBFE8
:101B2000DF91CF911F910F91FF90DF90CF9008959B
:101B3000A2E0B0E0EEE9FDE00C94CB70FC01DB012B
:101B40008C91808315966C911597618316964C91B4
:101B5000169742831382CC908BE5C89ED001112446
:101B6000A555B34FDC9081E0D8121AC07F018C2DAF
:101B70000E94D208AC0160E070E0762F652F542FF0
:101B8000442702E010E09E012F5F3F4F8C2D0E9402
:101B9000A435811106C08981F70181838A818283FE
:101BA000D12C8D2D2296E8E00C94E770EF92FF92F5
:101BB0000F931F93CF93DF93EC019A85892F827047
:101BC00091FF1FC0F9888091590CF816C8F44B8911
:101BD0006A898F2D0E94D20828813981AC0160E08A
:101BE00070E0762F652F542F4427EE24E39400E015
:101BF00011E08F2D0E94E0359A859D7F9A8701C064
:101C000080E0CDB7DEB7E6E00C94E970EF92FF928A
:101C10000F931F93CF93DF937C01D62FC42F122FE6
:101C2000442391F08BE5689FF0011124E455F34FB4
:101C30008281841748F0642F8D2F0E942B09212F59
:101C400030E02817390730F0412F6C2F82E40E94D2
:101C50007F2816C0412F6C2F8D2F0E94D208F701CC
:101C600020813181AC0160E070E0762F652F542F28
:101C70004427EE24E39400E011E08D2F0E94E0352C
:101C8000CDB7DEB7E6E00C94E970A0E0B0E0EBE49D
:101C9000FEE00C94C770C82FD62FF42E59014801CE
:101CA000662391F08BE5C89F80011124F801E4556B
:101CB000F34F8281861740F08C2F0E942B09CF2C86
:101CC000D12CC816D90620F04F2D6D2F8E2D6AC04D
:101CD000F801E555F34F108117FF6DC08091F30AAD
:101CE000C81305C08091F40AD81709F450C048E21F
:101CF00050E061E070E085EF9AE00E944B71812F27
:101D00008F77833011F1843089F1823009F065C01A
:101D10006D2F8C2F0E942B098C0140E06D2F8C2F92
:101D20000E94D208AC0160E070E055556D4F7F4FC6
:101D300025EF3AE08C2F0E94A435823008F04DC088
:101D4000C093F30AD093F40A22C06D2F8C2F0E9407
:101D50002B098C0140E06D2F8C2F0E94D208AC0122
:101D600060E070E05A5A6A4F7F4FE2CF6D2F8C2FA0
:101D70000E942B098C0140E06D2F8C2F0E94D2080D
:101D8000AC0160E070E05058634F7F4FD1CFF60157
:101D9000ED50F54F82819EEF980F9A3030F44F2D21
:101DA0006D2F8E5E0E947F2818C08F3021F48AE448
:101DB0000E945F2912C04F2D6D2F8C2F0E94D208D8
:101DC000AC0160E070E0762F652F542F442784012A
:101DD00095018C2F0E94A43501C082E0CDB7DEB7FB
:101DE000ECE00C94E370EF920F931F93CF93DF938B
:101DF000EC01E881F98180818D8B81818E8B83E478
:101E0000E82E00E011E09F01418160818C890E94F1
:101E1000450E882329F0CE010E941A0881E010C0E7
:101E200092E09B83E881F98120819A85211104C089
:101E300021812A83906203C02FEF2A839F7D9A8796
:101E4000DF91CF911F910F91EF9008950F931F9302
:101E5000CF93DF938C01EA01645E7F4FFC018081A8
:101E60000E94C40981111CC0E881F9818091D40AC3
:101E70008083E881F9818091D50A8183F80180818E
:101E80008C8B8A8523EF3EE03E872D8727E639E05D
:101E90003C872B87846080648A87CE010E94F30E82
:101EA000DF91CF911F910F910895EF920F931F93A0
:101EB000FC01862F642F422F2081318192E4E92E8C
:101EC00000E011E00E94450E1F910F91EF900895E0
:101ED000AF92BF92CF92DF92EF920F931F93CF9367
:101EE000DF9300D0CDB7DEB76C015B018CE1A80EAB
:101EF000B11CB501F60180810E94C409882311F04C
:101F00008FEF29C08091D40A89838091D50A8A8372
:101F10004A816981F60180810E94710C83E4E82E78
:101F200002E010E09E012F5F3F4F4A816981F60178
:101F300080810E94450E8111E3CF89818111E8CF14
:101F40001092D30A41E0B501F60180810E94980900
:101F50008111D6CF81E00F900F90DF91CF911F912B
:101F60000F91EF90DF90CF90BF90AF900895EF92D8
:101F70000F931F93CF93DF93EC018B818830B1F4E3
:101F800083E4E82E02E010E021ED3AE04A81698125
:101F900088810E94450E811124C08091D10A882336
:101FA00079F189838091D20A8A831B821981112356
:101FB00099F008818BE5089FF0011124E455F34F57
:101FC0008281811748F0612F802F0E942B092A817E
:101FD00030E02817390738F04A81612F83E40E94E6
:101FE0007F2881E00EC0BE016F5F7F4F802F0E946F
:101FF000C4098111F6CF8B818F5F8B8380E001C094
:102000008FEFDF91CF911F910F91EF9008950F9374
:102010001F93CF93DF938C01EB01C8010E94B70F90
:10202000811167C08091D30A8823B9F38DE2FE0144
:1020300011928A95E9F784E08B8F8091D30A8058BA
:10204000982F9770973009F4887F898BF8018181E8
:102050009281A3818C8F9D8FAE8F8E8D81508E8FBC
:102060008091F00A90E0982F88272091EF0A820F44
:10207000911D9B8B8A8B8FEF8C8B80E1E6EDFAE0D4
:10208000DE0101900D928A95E1F78FE0FE01E80FE5
:10209000F11D9081903A09F410828150B8F7809137
:1020A000EE0A6CE30E944B70998F8091ED0A68E113
:1020B0000E944B70988F8091EC0A90E001976FE13D
:1020C00070E00E946B708F5F8F8B8091EB0A90E0C5
:1020D00001976CE070E00E946B708F5F8E8B809137
:1020E000EA0A64E60E944B70903508F49C599D8B77
:1020F00080E0DF91CF911F910F910895A2E0B0E0B1
:10210000E4E8F0E10C94D1701A821982611103C0E5
:1021100080E090E040C09BE5899F90011124F90187
:10212000E455F34F9281961798F3F901E555F34F73
:1021300090819F779E012F5F3F4F41E0913019F5CD
:102140000E94DF0A8111E4CFE981FA81BF01605E5C
:102150007F4F40E050E03191232F2695257535754E
:10216000230F922F9373269526952373920F892F11
:102170008F7092959F70980F490F511D6E177F07B2
:1021800051F7CA0108C00E94DF0A8111C1CFE9815D
:10219000FA81808190E02296E2E00C94ED70A0E05C
:1021A000B0E0E5EDF0E10C94C870B82EEB017A01D7
:1021B000C82ED12C8BE5B89E80011124F801E5557D
:1021C000F34F80816881813069F5162F612F8B2D47
:1021D0000E947E102881892B91F41F5F8BE58C9DD6
:1021E000F0018D9DF00D1124E455F34F82811817F5
:1021F00011F0111101C011E01213E8CF25C0121324
:1022000003C0F701008101C000E0402F612F8B2D3A
:102210000E94C00B811102C00F5FF7CF1883F70136
:1022200000838CC00455134FF8018081681311C0DE
:102230008B2D0E947E10892B49F480911B0C8111FB
:1022400003C088E40E945F2981E079C0F80196808C
:1022500002C0F8019580A12CF2E0FA15B0F1688176
:102260008B2D0E947E10892BA1F58881F801908129
:10227000891710F4815012C021E0280F28839BE5B4
:102280009C9DF0019D9DF00D1124E555F34F90812B
:102290009F77933021F4253311F48E5F88838881F2
:1022A000811107C0F80180818F5F8883F701108258
:1022B000A3949881F8018281891770F680818150FA
:1022C0008883F7011082A394C7CF83E0A81609F48E
:1022D000B4CFF7018081192D180F108368818B2DE1
:1022E0000E942B09212F30E02817390740F0181BD6
:1022F00019F4F701108203C01150F701108303E6AF
:10230000F701408168818B2D0E94C00B18169CF04C
:102310000150A0F0F701208111E0120F10836881B5
:102320008B2D0E942B09212F30E02817390740F30D
:10233000F7011082E5CF002309F47FCF80E0CDB70D
:10234000DEB7EBE00C94E470A0E0B0E0EAEAF1E183
:102350000C94C9706C01EB01BC01CE010E94980D78
:10236000CE010E94B70F181614F481E0DAC0811173
:1023700008C08091D30A8111F3CF9B8191509B8338
:10238000D0C019810A815E01BFEFAB1ABB0AAE0152
:102390004E5F5F4FB501F60180810E94CF10811121
:1023A000E4CF89818093D10A8A818093D20AD601B1
:1023B000FC90402F612F8F2D0E94D208AC0160E06D
:1023C00070E0762F652F542F4427E12C02E010E0B7
:1023D00021ED3AE08F2D0E94E0358111C6CF4A8170
:1023E0006981F60180810E94060C8111BECFD60161
:1023F000FC90BBE5FB9EF0011124E555F34F808175
:10240000813061F080E2E1EDFAE0DF011D928A9512
:10241000E9F78FEF8093D20A10E071C0F601468190
:1024200065818F2D0E94D208AC0160E070E0762FAC
:10243000652F542F44274C5D5F4F6F4F7F4F03E054
:1024400010E021ED3AE08F2D0E94A43581118DCF4F
:102450006091D10A6623B1F2D601FC904091D20A74
:102460008F2D0E94D2084091D30A50E060E070E0C6
:10247000445E5F4F6F4F7F4FA0E0B0E0BA2FA92FAF
:10248000982F8827480F591F6A1F7B1F02E010E012
:1024900024ED3AE08F2D0E94A435811166CF809102
:1024A000D40A9091D50A01969093D50A8093D40AC4
:1024B000F601F0804091D20A6091D10A8F2D0E94DE
:1024C000D2084091D30A50E060E070E0445E5F4F74
:1024D0006F4F7F4FA0E0B0E0BA2FA92F982F882729
:1024E000480F591F6A1F7B1FEE24E39424ED3AE046
:1024F0008F2D0E94E035882309F484CF36CF1B83CB
:1025000040E0B501D6018C910E94980981112DCF30
:102510001092D20A1F5F183091F79FEF9093D20A62
:102520001B82CDB7DEB7EAE00C94E570A5E1B0E020
:10253000ECE9F2E10C94C7706C017B01DC01EC91D9
:10254000BBE5EB9FF0011124E555F34F808181300D
:1025500011F08FE11FC00E949F075C01892B09F4D5
:102560002CC1BE016F5F7F4FC6010E94A411811173
:1025700024C1F60185818D8B86818C8BAE014C5EEA
:102580005F4FBE016B5E7F4F80810E94CF1088231A
:1025900021F088E40E945F2910C14C896D89D60121
:1025A0008C910E94060C811108C18D898B8B8C89BE
:1025B0008A8BAE014E5E5F4FBE016D5E7F4FF601AE
:1025C00080810E94CF10882351F088E40E945F2907
:1025D0004C896D89D6018C910E94710CEEC04A899C
:1025E0006B89F60180810E94060C8111E6C0D5013D
:1025F000ED91FC9180E091E0DF019C011D92215062
:102600003040E1F7D5018D919C9149E150E060EABD
:1026100070E004960E944B71D501ED91FC911197E9
:102620008B8980838A89818388E48283ED91FC9100
:102630008D8980A38C8981A3D60115968C911597DD
:1026400082A316968C9183A38A8184A38B8185A310
:102650008C818295880F807E8E5F86A34701D5018D
:10266000ED91FC913496D7018D91882311F08193DF
:10267000FBCFD501ED91FC91D7018C91868B119602
:102680008C91878B81E3818F88E4828FF601F080C3
:102690004C896D898F2D0E94D208D5012D913C91D6
:1026A000AC0160E070E0762F652F542F4427E12CB9
:1026B00000E011E08F2D0E94E03581117EC0D50130
:1026C000ED91FC9180E091E0DF019C011D92215091
:1026D0003040E1F7D501ED91FC918FEF8183F60158
:1026E000F0804A896B898F2D0E94D208D5012D91E7
:1026F0003C91AC0160E070E0762F652F542F4427A9
:102700008F2D0E94E035811158C08FE1E3EDFAE092
:10271000DF011D928A95E9F740E150E060EA70E040
:1027200086ED9AE00E944B71E6EDFAE0D4018D91BE
:102730004D01882311F08193F9CF86E88093D30A65
:102740008D898093D40A8C898093D50A82E0809306
:10275000EF0A82E58093EA0A88E08093EB0A8FE132
:102760008093EC0A1092ED0A1092EE0AF601D080E6
:102770004B816A818D2D0E94D2084C81F0E24F9FDF
:10278000A0011124052E000C660B770B4E5F5F4FE6
:102790006F4F7F4FA0E0B0E0BA2FA92F982F882766
:1027A000480F591F6A1F7B1FEE24E3940EE110E0CF
:1027B00023ED3AE08D2D0E94E0356596ECE00C9417
:1027C000E370A2E0B0E0E7EEF3E10C94CA706C01B4
:1027D000DC0155968C9155978A8356968C91569725
:1027E000898357968D919C915897019658969C9302
:1027F0008E935797ED91FC9111971082ED91FC917A
:10280000119712968C9112978183AE014F5F5F4FA3
:10281000BE016E5F7F4F54968C910E94CF1088232B
:1028200021F01A82F0901B0C13C0D601ED91FC919F
:1028300011978A818083ED91FC91119749814183A1
:102840006A8154968C910E94060C811130C0F12C43
:10285000F601B488468965898B2D0E94D208D6017D
:102860002D913C91AC0160E070E0762F652F542FE4
:102870004427EE24E39400E011E08B2D0E94E03524
:10288000182F811114C08A81F601858B8981868B6E
:1028900082E0838381E0828382858D7F8287C60187
:1028A0000E94C208FF2039F08F2D0E945F29C601C7
:1028B0000E941A0811E0812F2296E9E00C94E6703C
:1028C000FF920F931F93CF93DF93F82EC1E000E0A8
:1028D00010E02BE5F29EC0011124FC01E455F34FFA
:1028E00022812C1748F1FC01E555F34F80818F7749
:1028F000813059F0843019F4C832B1F41BC0C231B0
:10290000C9F0C533B9F0813079F4C13069F4D0E44D
:102910004D2F61E08F2D0E94C00B181614F40F5F2D
:102920001F4FDF5FA9F706C06C2F8F2D0E947E100E
:10293000080F191FCF5F69F6C801CDB7DEB7E5E014
:102940000C94EA70A1E1B0E0E8EAF4E10C94C47000
:102950006C015B01142F7901DC01EC91BBE5EB9F6D
:10296000F0011124E65AF34F83A981FD02C08AE1E8
:102970009FC00023B9F0A901C6010E94260F8091D3
:102980001B0C811134C1D701ED91FC91808188230A
:1029900009F49BC0D7011D96ED91FC911E97C701CC
:1029A0000995EDCFBE016F5F7F4FC6010E94A41154
:1029B00081111DC18FE1E3EDFAE0DF011D928A95DF
:1029C000E9F740E150E060EA70E086ED9AE00E94AD
:1029D0004B71F501A6EDBAE08191882311F08D933A
:1029E000FBCF1093D30AF6015080852C912C2BE558
:1029F000529EF0011124E555F34F8081813011F092
:102A000001E029C012E0612F852D0E947E10892BE4
:102A100009F03FC01F5F8BE5889DF001899DF00D97
:102A20001124E455F34F8281181729F0112319F06E
:102A3000123049F7DCC011E0E6CF102FD5016C91C0
:102A4000601B852D0E947E10892BD1F401951016F4
:102A500014F401E0011B602E002E000C77082BE51A
:102A6000289DC001299D900D11249C012455334FB0
:102A70005901D90112968C9190E068167906ECF212
:102A8000F501828190E06816790669F0F501108100
:102A9000101B00E0612F852D0E942B09202F30E0B4
:102AA0002817390740F080911B0C8111A0C088E4E1
:102AB0000E945F299CC0402F612F852D0E94C00B72
:102AC00018160CF44CC00F5FE5CFF501848D958D81
:102AD000A68DF701818B928BA38B8091F00A90E0F9
:102AE000982F88272091EF0A820F911D0197908FD0
:102AF000878B82858B7F828792819F5F93839111E1
:102B000004C08260F701828704C08D7FD7011A96C6
:102B10008C9381EE93E1F7019687858789E79AE0A8
:102B2000908B878787E699E0948783878285886082
:102B30008064828782E58093EA0A88E08093EB0ACA
:102B40008FE18093EC0A1092ED0A1092EE0AB70121
:102B50006F5E7F4F41E084890E94980948C01093BE
:102B6000D40A0093D50A402F612FD6018C910E9480
:102B7000060C81113CC082E58093EA0A88E08093CC
:102B8000EB0A8FE18093EC0A1092ED0A1092EE0AA4
:102B900041E0BE016E5F7F4FD6018C910E94980983
:102BA000811125C0F701828588608064828782E078
:102BB0008383828389E79AE0908B878781EE93E114
:102BC0009687858787E699E0948783870190F081CF
:102BD000E02D8DE082838A819B81AC81F701818B1E
:102BE000928BA38BD6018C91848B158B068B61966F
:102BF000EFE00C94E070A0E0B0E0E1E0F6E10C94CE
:102C0000C9707B01EA0169012BE5829FC001112493
:102C1000FC01E455F34F5F0183818B01080F111D07
:102C200049E150E060EA70E0C8010E944B71FE018A
:102C3000D8019E012F5E3F4F8191882329F0E21732
:102C4000F30711F08D93F8CFF5018481D701A80F18
:102C5000B11D85E0F60101900D928A95E1F7CDB79F
:102C6000DEB7EAE00C94E570A0E0B0E0EAE3F6E15C
:102C70000C94CB70F82EEB016A018901E12C4E2DEA
:102C800061E08F2D0E94060CE39423E2E212F7CF5D
:102C9000B80188E40E945409E0911307F0911407E9
:102CA000A081B1813BE5F39EF0011124E455F34F7F
:102CB000828118968C93E881F98180E091E0DF01B0
:102CC0009C011D9221503040E1F7EE24E394E08214
:102CD00082E2818388E4828391E3D80113969C93F6
:102CE000139714968C93688179819801A6018F2D92
:102CF0000E94FB15E881F981E0A2E881F981E1A257
:102D000028813981E12C00E011E040E051E060E0F1
:102D100070E08F2D0E94E035811107C02881398134
:102D200042E261E08F2D0E947009CDB7DEB7E8E086
:102D30000C94E770CF92DF92EF92FF920F931F9364
:102D4000CF93C82F8B016A01790140E062E10E94B4
:102D5000060C41E062E18C2F0E94060CE091130703
:102D6000F09114070190F081E02D82E1808381E0F1
:102D7000818381E4828392E3F70193838483E091EA
:102D80001307F0911407608171819701A6018C2FC0
:102D90000E94FB15A0911307B0911407ED91FC91CF
:102DA0001197E755FF4F80EA8083ED91FC91E6553E
:102DB000FF4F8083F8012081318141E062E18C2F57
:102DC0000E947009CF911F910F91FF90EF90DF90BB
:102DD000CF900895CF93DF93D82F0E949A16E09159
:102DE0001307F09114070190F081E02D80E88383B0
:102DF000C0E04C2F65E38D2F0E94060CCF5FC331DE
:102E0000C1F7DF91CF910895A0E0B0E0EAE0F7E1EB
:102E10000C94CB70C82F6B017A018901D0E04D2F43
:102E200068E28C2F0E94060CDF5FD430C1F7E0917E
:102E30001307F09114070190F081E02DD8E2D083C0
:102E4000E0911307F09114070190F081E02D82E0EA
:102E50008183B80184E40E94540969E28C2F0E94A6
:102E60007E10E0911307F09114070190F081E02D9E
:102E70001082E0911307F09114070190F081E02D8A
:102E80008FEF8183B80184E40E945409E091130715
:102E9000F0911407828582608287D601ED91FC91C2
:102EA0001197D08383E0818384E4828393E3F801E4
:102EB000938384836D917C919801A7018C2F0E944C
:102EC000FB15D6012D913C91E12C00E011E040E092
:102ED00058E166E070E08C2F0E94E035811108C057
:102EE000F6012081318143E068E28C2F0E94700955
:102EF000CDB7DEB7E8E00C94E770809113079091AE
:102F00001407009731F0DC011F96ED91FC9150976A
:102F100009958091110790911207009731F0DC011B
:102F20001F96ED91FC915097099580E00895ACE0D3
:102F3000B0E0EDE9F7E10C94C170682E712C2BE53F
:102F4000829FF0011124E65AF34FDF01AF5ABF4FC1
:102F50009C91913041F497A5913009F0E6C090A979
:102F6000913009F0E2C02A011B01F82E0E949F0750
:102F70006C01009709F4D9C0DC011A968C911A975C
:102F800088608F7B1A968C93C6010E94B508D60183
:102F9000ED91FC9180E091E0DF019C011D922150B8
:102FA0003040E1F70E947D17E0911307F09114077C
:102FB0008FEF818BE0911107F0911207309709F0A4
:102FC000818B4114510409F43FC0AA24A394B12C6D
:102FD0008BE5869DF001879DF00D1124E455F34F9C
:102FE000828190E08A159B0540F1812C912C6A2DFD
:102FF0008F2D0E942B0988169906D8F4482D6A2D2A
:103000008F2D0E94D208D6012D913C91AC0160E039
:1030100070E0762F652F542F4427E12C00E011E05B
:103020008F2D0E94E035811180C0BFEF8B1A9B0A63
:10303000DECFEFEFAE1ABE0ACBCFD2018C918887DC
:1030400011968C9189873DC0F9828BE5869D800120
:10305000879D100D11240455134FF80180818E8334
:1030600081E08F83BE01685F7F4FCE0101960E9491
:10307000360D81115AC0D8019C90A12CB12C692D1C
:103080008F2D0E942B09A816B906D8F44A2D692D58
:103090008F2D0E94D208F60120813181AC0160E0C1
:1030A00070E0762F652F542F4427E12C00E011E0CB
:1030B0008F2D0E94E035811138C0FFEFAF1ABF0A93
:1030C000DECF80EA8A8701E010E02BE5269DC00173
:1030D000279D900D1124FC01E455F34F228130E02F
:1030E00020173107A8F0A12CB12C602F8F2D0E9442
:1030F0002B09A816B90648F44A2D602F8F2D0E947F
:10310000710C2FEFA21AB20AF0CF0F5F1F4FDDCF65
:10311000FC01ED54F34F0190F081E02D9E01285FFA
:103120003F4FA101B6018F2D09952C96E2E10C9439
:10313000DD70A0E0B0E0EFE9F8E10C94C970EC01BB
:103140009B019881A92EB12C4BE5949FC0011124BD
:10315000FC01E65AF34FC3ACD4ACE5ACF6ACC114F9
:10316000E6E5DE06E5E0EE06F10409F446C0D0F43B
:10317000C1144BEAD40642E0E406F104A1F1EBEA03
:10318000CE16EDEADE06E2E0EE06F10409F053C0E9
:1031900049E050E061E971E08455934F0E94257148
:1031A00012E87BC0C114F0E8DF06FCE0EF06F10492
:1031B00071F140E8C4164CE8D4064CE0E406F10492
:1031C00081F1E6E5CE16EBE5DE06E5E0EE06F1047C
:1031D00091F549E050E068E871E08455934F0E9412
:1031E000257113E85AC049E050E061E971E0845567
:1031F000934F0E94257112E050C049E050E068E80A
:1032000071E08455934F0E94257113E046C049E058
:1032100050E06FE771E08455934F0E94257114E0F0
:103220003CC049E050E06FE771E08455934F0E9445
:10323000257114E832C0D701C601AA27BB27892B04
:103240008A2B8B2B21F08FE40E945F295BC0C11475
:10325000D104F3E0EF06F10461F46EE270E0C9011D
:103260000E947371FC012281263319F48381843317
:1032700051F38BE58A9D80018B9D100D112449E04F
:1032800050E066E771E0C8018455934F0E942571B4
:10329000F801E255F34FE08211E08091130790911D
:1032A0001407892BA1F40E947D07FC019093140759
:1032B00080931307892B31F185E684838FEF818B0F
:1032C00086ED9DE0908B87878285806482878BE581
:1032D0008A9DF0018B9DF00D1124DF01A555B34FA0
:1032E0001C93E455F34F80818D8381818E8380917F
:1032F00010078F5F8093100717FF06C08FEF809332
:10330000F30A02C081E001C080E0CDB7DEB7EAE099
:103310000C94E570CF93DF93EC01FB01A081B181A8
:103320008D818C93A8818BE5A89FD0011124A55590
:10333000B34F8C91A081B181813021F48E8111969F
:103340008C9302C011961C928881848B828523EF16
:103350003EE03687258727E639E034872387846077
:1033600080648287CF010E94F30EDF91CF91089590
:1033700080911307909114070E941A081092140765
:103380001092130780911107909112070E941A085A
:103390001092120710921107109210070895CF9300
:1033A000C82F8091130790911407009779F0DC01E2
:1033B0001F96ED91FC9150970995E0911307F091BC
:1033C000140781898C1302C08FEF818B80911107C4
:1033D00090911207009779F0DC011F96ED91FC9116
:1033E00050970995E0911107F09112078189C81350
:1033F00002C08FEF818B809110078150809310075E
:103400008823A1F080911307909114070E941A0855
:1034100080911107909112070E941A0810921407C8
:10342000109213071092120710921107CF9108956E
:1034300090E0992329F080FD03C081FD04C004C001
:10344000419A9111FACF409A4091CB0D5091CC0DF9
:10345000465F5F4F2091CB0D3091CC0D241B350B77
:1034600037FDF8CF419840984091CB0D5091CC0D4D
:10347000465F5F4F2091CB0D3091CC0D241B350B57
:1034800037FDF8CF9F5F9230A1F60895A2E0B0E03B
:10349000ECE4FAE10C94C57070901B0C10921B0CBC
:1034A00085E00E9442080E949F07009709F4CDC062
:1034B000FC01C080D180F59AF601E958FF4F1082D7
:1034C000F12CE12CA12CB12C809115078F1508F45B
:1034D0007EC0A50160E070E08DE197E00E94F046BB
:1034E00081110CC09E012F5F3F4F47E750E0B601AE
:1034F0008DE197E00E942C44882321F061E00E9436
:103500007C2AA3C089819A818737910520F4F6012E
:10351000E80FF91F108289819A81892B29F0860191
:10352000612C90E0E12C17C0809115078F3F29F4A2
:10353000FA94F0921507F12CC5CF10921507FBCF26
:103540008D30C9F08A30B9F08A3389F08B3341F07D
:10355000803251F48F01F80181918111F1CF13C0B4
:10356000992309F476C005C08930A1F302C0EE2486
:10357000E39491E0EFCFF8014F0181918D30E1F3B9
:103580008A30D1F301C04801A114B10461F448E0CC
:1035900050E06AE971E0C6010E941871892B19F4A4
:1035A000F598662463948C189D08A80CB91C6110CA
:1035B0008BCFF394F8011082A8014C195D094F5F7D
:1035C0005F4FB60187E29BE00E9442717DCF809100
:1035D00016079BE5899FF0011124E65AF34F21A9B4
:1035E00032A92C53354011F00E946235A091160784
:1035F000A093580CFBE5AF9FD0011124AB57B34FFC
:1036000086E0E7E1F7E001900D928A95E1F7E1109D
:103610000AC08091270B8F3231F08AE38093260B0A
:1036200006E21BE002C007E21BE0F59B03C0C801F5
:103630000E942170C8010E94351E80911B0C8823B6
:1036400031F0893421F070921B0C80E005C081E0DC
:1036500003C0662463948DCF2296EEE00C94E17053
:10366000FF920F931F93CF93DF93EC018B01F42E06
:10367000F29880911F0790912007892B59F08DE1D6
:1036800097E00E94E4468EE1EDE1F7E0DF011D9254
:103690008A95E9F7F80180818823C1F149815A812F
:1036A0006B817C81E8818BE58E9FF0011124E65AC5
:1036B000F34F468B578B608F718F9881899FC00124
:1036C000112421E0A8016DE177E0865A934F0E9412
:1036D000CF42882321F061E00E947C2A17C087E056
:1036E000FE01A6E1B7E001900D928A95E1F7FF2077
:1036F00021F08FEF8093150702C0109215070E94EA
:10370000461A882319F083E00E94181ACDB7DEB755
:10371000E5E00C94EA7040E00E94301B0895A3E6B7
:10372000B0E0E5E9FBE10C94D07080911F07909127
:103730002007892B09F0D9C06FEA71E081ED9AE08A
:103740000E942E718091580C9BE5899FF0011124F5
:10375000EB57F34F96E0ABE5B0E0AC0FBD1F119611
:1037600001900D929A95E1F76C968FAF6C978091CE
:10377000C90D81FF02C041E001C040E061ED7AE087
:10378000CE01855A9F4F0E94301B80911F07909158
:103790002007892B09F0A3C08091C90D82FF9BC02F
:1037A00062EA71E0CE01855B9F4F0E942E71A09668
:1037B0004CAD5DAD6EAD7FADA0976C968FAD6C9747
:1037C0001BE5189FC00111249E01255C3F4F865ABE
:1037D000934F0E94634881117EC06C968FAD6C97A9
:1037E000189FC00111242AE0AE01455B5F4FBE0166
:1037F0006F5F7F4F865A934F0E94CF4281116BC0FB
:10380000409A81ED9AE09AAF89AF10E0BE01615E07
:103810007F4FCE01CB960E94964881114BC08CA55C
:10382000882309F447C08FA184FDF0CFCE018C9688
:103830000E94FF30823051F78091D10A811104C07B
:10384000BE01645D7F4F02C061ED7AE0FB01019033
:103850000020E9F73197AF01461B570B9E012E5907
:103860003F4FCE0101960E944E45882311F011E092
:1038700021C0A4968EAD9FADA497892BC1F38DE096
:103880008CA78AE08DA79E012E593F4F42E050E061
:10389000BE01645D7F4FCE0101960E944E458111AD
:1038A000E6CF11E0A4968EAD9FADA497892B09F0C9
:1038B000ADCFDDCFCE0101960E94E44640981123A2
:1038C00051F040E0BE01655B7F4FCE01855A9F4FAE
:1038D0000E94301BF29A80E00E945F2901C0F29A98
:1038E0008091C90D1092C90D3AC08091C90D80FF19
:1038F00010C0809115078F5F809315078091C90DC7
:103900008E7F8093C90D0E94461A882341F182E080
:1039100024C08091C90D81FF10C08091150781508E
:10392000809315078091C90D8D7F8093C90D0E94EA
:10393000461A8823A1F081E010C08091C90D82FF52
:103940000EC0109215078091C90D8B7F8093C90D11
:103950000E94461A882319F083E00E94181ACD5954
:10396000DF4FE3E00C94EC708EE1EDE1F7E0DF0176
:103970001D928A95E9F7F298089580911E0B90E0C8
:103980004AE750E0481B590B60E070E08A5D944FB5
:103990000E944B710895AC0180911C0C811104C0F0
:1039A0008091420780931C0C90911C0C2AEF31E00F
:1039B000F9013296E491EE23A9F0E91310C0F90160
:1039C000659174916417750751F4F9013396459127
:1039D0005491F90135968491FA0109950CC02A5F3A
:1039E0003F4FE6CF4091000150910101652F7727AD
:1039F00082E60E947F288FEF9FEF909301018093D2
:103A0000000180911C0C8093420710921C0C0895B9
:103A1000A6E0B0E0EEE0FDE10C94CB700E94BD1C8E
:103A20006DE270E086E29BE00E9452717C01892B7E
:103A300009F4CEC08E010F5F1F4F84E0D8011D92A4
:103A40008A95E9F76AE370E086E29BE00E94527192
:103A50009E838D83892B79F4E6E2FBE001900020C0
:103A6000E9F73197E652FB40339708F4B4C088E297
:103A70009BE09E838D838D819E8101969E838D83A5
:103A8000680110E0ED81FE8180818823D1F014303F
:103A9000D9F0ED81FE818081803221F43196FE8360
:103AA000ED83F7CF8D31D1F38C32C1F3882349F008
:103AB0001F5FCE0105960E94636AF60181936F0134
:103AC000E1CF1F3F09F487C0D70111968C91823551
:103AD00031F0873521F0803509F07AC055C08981F1
:103AE0000E9495088C01892B11F486E472C0F701BD
:103AF0008181823549F5D80151966C91BBE56B9F68
:103B0000F0011124E65AF34F01A8F2A9E02D7096B6
:103B1000A591B4912C814B81C801FD01099580913B
:103B2000260B823461F481E0D80113968C931397AD
:103B3000ED91FC911197808112968C934CC0F80105
:103B400013828FEF828347C08091260B823441F429
:103B5000D801ED91FC91119713968C91815080833F
:103B6000F80161898BE5689FF0011124E65AF34F53
:103B700001A8F2A9E02D7296A591B4912C814B81F8
:103B8000C801FD01099527C089810E949508FC01A3
:103B9000892B09F4AACF82898130B9F08B814981C0
:103BA00093E6941B94830388F489E02D815048F0B8
:103BB000258936892115310511F423893489F901C4
:103BC000F5CF448382858D7F82878A81838303C07A
:103BD0008FE10E945F292696E8E00C94E770A0E050
:103BE000B0E0E5EFFDE10C94CB70E0904007F09081
:103BF00041079E2D981B00913E0710913F07C62F4D
:103C0000D0E0692F70E0C61BD70B0C171D0708F416
:103C1000E8016E01DD24D0913D07E0913B07F09172
:103C20003C0780819181645D744FA6018D0F911DC9
:103C30000E944271CD0FC0933D07EC0CFD1CF09229
:103C40004107E0924007C8018C199D0990933F07F6
:103C500080933E07892B21F410923C0710923B077A
:103C6000CDB7DEB7E8E00C94E770A6E3B0E0EBE395
:103C7000FEE10C94CF708C0121E0AE014B5C5F4FF4
:103C8000BE01625D7F4F0E947D6981113FC010922D
:103C9000240C6DA97EA9FB018081882341F18F3519
:103CA00029F4CE0101960E945D710AC09E012F5F2A
:103CB0003F4F40E2CE018E960E944769811126C097
:103CC000EEA58BE5E89FF0011124E65AF34F01A819
:103CD000F2A9E02D7C9625913491BE016F5F7F4F54
:103CE000CE018E96F9010995811110C00BC06FE2CB
:103CF00070E0C8010E945271892B21F487E20E9472
:103D00005F2904C0CE018E960E943468E696E4E0F6
:103D10000C94EB70A6E7B0E0E0E9FEE10C94C9700A
:103D200080E00E945F2920911E0B283729F480E251
:103D30000E945F290C946A2720931F0B222359F0BD
:103D4000E22FF0E0EB5DF44F80818D3021F48FEFB6
:103D5000820F80931E0B90911E0B911105C08FE175
:103D60000E945F290C946A27E091260BE83511F434
:103D70000C94B3268091270B843409F01FC10E9454
:103D8000BD1C8091260B8D3439F0823509F444C076
:103D9000833409F00EC130C06AE370E086E29BE034
:103DA0000E945271892B29F482E20E945F290C94AF
:103DB0006A2720E0AE01425D5F4FBE016F5F7F4F1B
:103DC00088E29BE00E947D6981110C946A27E98159
:103DD0002BE5E29FF0011124E65AF34F01A8F2A966
:103DE000E02D7A96259134916EA57FA5CE0101969E
:103DF000F90109950C946A2788E29BE00E94351E20
:103E0000F29902C00C946A2761E070E080E090E0D3
:103E10000E948B1B0C946A276FE270E086E29BE0A5
:103E20000E945271892B29F082E20E945F290C9432
:103E30006A2788E29BE0E5969FAF8EAFE597CE01BB
:103E40008D589F4F0E945768E5966EAD7FADE59700
:103E5000DB019C919A3329F082E20E945F290C9445
:103E60006A27DE01A459BF4F8D93082F10E08BE520
:103E7000F82EF09EF001F19EF00D1124EB57F34F58
:103E800086E001900D928A95E1F76F5F7F4F9E016A
:103E9000225D3F4F46E0CE0184599F4F0E94476903
:103EA00081110C946A27AD96EFADAD97FE9EF0019F
:103EB0001124E65AF34F01A8F2A9E02D7C96259132
:103EC0003491BE01625D7F4FCE0184599F4FF9014D
:103ED000099581110C946A27AD96EFADAD97FE9EC2
:103EE000F0011124E65AF34F01A8F2A9E02D7696CD
:103EF00025913491BE0164597F4FCE01855A9F4F61
:103F0000F901099581110C946A276C96EFAD6C97B5
:103F1000FE9EF0011124E65AF34F01A8F2A9E02D0C
:103F2000789625913491BE016F5F7F4FCE01855AFF
:103F30009F4FF90109958F3F51F080911B0C811122
:103F40000C946A278FE30E945F290C946A27F09EE5
:103F5000F001F19EF00D1124EB57F34F86E0ACE633
:103F6000B0E0AC0FBD1F119601900D928A95E1F75C
:103F7000AD96EFADAD97FE9EF0011124E65AF34FDA
:103F800001A8F2A9E02D369625913491BE01625D1B
:103F90007F4FCE0184599F4FF90109958F3F11F44E
:103FA0000C946A2740E0682F81E00E947F280C94DF
:103FB0006A278EE10E945F290C946A274E2F50E0F9
:103FC000FA01E254F109E431F10508F078C7E85C40
:103FD000FF4F0C94A1700E94081D7CC7803531F002
:103FE000803D51F58091280B81500AC00E94BD1C74
:103FF00088E29BE09A838983CE0101960E945768EC
:104000009091590C11E0180F891730F040E0612FA2
:104010008DE40E947F285EC78093580CF29B06C0F7
:1040200061E070E080E090E00E948B1B40E0612F37
:1040300082E00E947F284EC70E94BD1C6DE370E0A5
:1040400086E29BE00E945271009741F4E7961FAE12
:104050001EAEE7978EE10E945F293CC79C012F5F4F
:104060003F4FE7963FAF2EAFE797DC011C9220E071
:10407000AE014D585F4FBE01625D7F4F87E29BE00E
:104080000E947D69811126C7E5968EAD9FADE597AB
:10409000FC012081211104C082E20E945F291AC71D
:1040A0000E9445688111D6CFE5966EAD7FADE5974C
:1040B000AE014F5F5F4F5A019A0140E2CE018E96EA
:1040C0000E944769811104C08FE30E945F2902C7E3
:1040D00018160CF4FFC680E00E945F290E949F071B
:1040E0007C010E949F076C01E114F10409F4F2C6FF
:1040F000892B09F4EFC6AE0144595F4F6CE2E79695
:104100008EAD9FADE7970E940170E7969FAF8EAF8F
:10411000E79710E0E7968EAD9FADE797009709F41B
:104120002AC120E0AE014B585F4FBE01655A7F4F58
:104130000E947D6981111FC1E7966EAD7FADE79743
:10414000950140E2CE01855A9F4F0E944769811137
:1041500012C18A898770843001F5812F8B7F21F00D
:1041600080E40E945F2907C16C96EFAD6C975BE518
:10417000E59FF0011124E65AF34F01A8F2A9E02DC2
:104180003496A591B49101E020E0A701B501CE01DC
:10419000855A9F4FFD01099517C0143009F36C969D
:1041A000EFAD6C972BE5E29FF0011124E65AF34F37
:1041B00001A8F2A9E02D25913491A701B501CE0106
:1041C000855A9F4FF901099580911B0C8111D3C02D
:1041D00011113DC01A8917708DE2D5011D928A9583
:1041E000E9F7E5966EAD7FADE59740E150E0C5019A
:1041F0000E946471EEA51430B1F4BBE5EB9FF001B1
:104200001124E65AF34F01A8F2A9E02D3496A591A6
:10421000B49101E0F7012581A601B501CE018E968A
:10422000FD01099514C02BE5E29FF0011124E65A27
:10423000F34F01A8F2A9E02D3296A591B49100E0C8
:104240009601412FB501CE018E96FD010995D6014B
:104250001396EC91143021F4D70115960C9102C0FD
:104260000E2F0195D70112968C91129713969C915F
:10427000402F50E0282F30E0692F70E0261B370BCD
:104280002F5F3F4F241735071CF48F5F082F091B42
:10429000202F30E08E2F90E040E051E0481B590B7A
:1042A0004217530714F40E2F0195F6012081318136
:1042B000402F50E0D701ED91FC916E0F7F1F820FD0
:1042C000931F0E944271C6010E94B508F7018381C5
:1042D0008150800F8383D60113968C911397800FA2
:1042E00013968C931397815012968C93828585FF39
:1042F00004C093818281981759F1F7018581882341
:1043000051F0D7011D96ED91FC911E97C7010995BB
:10431000882349F030C0F701838191E0980F93839F
:104320009281891771F3D60115968C911597811199
:1043300004C013968C9181118ACFD6011D96ED9100
:10434000FC911E97C6010995882309F480CF13C0FC
:10435000C7010E9436080E949F077C01AE014459A4
:104360005F4F6CE280E090E00E940170E7969FAFA3
:104370008EAFE797CFCED7011F96ED91FC91509766
:10438000C7010995C6010E943608A4C58091280B73
:104390000E949508FC01892B21F486E40E945F2984
:1043A00099C58289823040F0948183E6891B848399
:1043B0000388F489E02D948313828FEF82838091A8
:1043C000290B20912A0B30912B0B40912C0B5091F3
:1043D0002D0B9091270B9235E1F09735A9F1993487
:1043E00009F04EC06081718120E031E0DB01A9015C
:1043F0001D9241505040E1F74081518160912A0B5C
:104400000E94CD6E882309F465C58AE40E945F2965
:1044100061C59289923020F48EE40E945F295AC5CA
:104420006081718101E00E94926D882309F452C578
:10443000813021F484E10E945F294CC540E0682F5F
:104440008AE40E947F2846C59289923028F36081D1
:10445000718101E00E94376E813041F008F43AC565
:10446000823041F48AE10E945F2934C589E10E94CB
:104470005F2930C540E0682F8AE40E947F282AC562
:104480008FE10E945F2926C5933008F423C58D3241
:1044900021F48091280B803521F08EE10E945F2964
:1044A00019C5933021F08091290B8F3F19F4809129
:1044B000580C8F5F1092A40A9EE19093A30AE7EB39
:1044C000FBE0DF011D929A95E9F79DE09093D50BF3
:1044D0009091590C981708F4FDC4811108C04FE160
:1044E00050E06CEB71E0CF010E942571F3C4DD2434
:1044F000DA94D80E0D2D10E0BBE5DB9EF0011124FF
:10450000E65AF34FE1A8F2A826E5E21621E0F2060A
:1045100029F4EF5AFF4F90819F7701C091E090936B
:10452000B70B92EE9093B80B8093B90B40E150E03B
:1045300060EA70E08AEB9BE00E944B71F7013896CD
:104540002591349161ED7AE08D2DF9010995811164
:10455000C1C4E1EDFAE0AAEBBBE08191882311F040
:104560008D93FBCF8BE5809FF001819FF00D11248F
:10457000E65AF34F82859385A485B585A093CA0B2F
:104580009093CB0B8093CC0B81A992A98655914037
:1045900091F483AD94ADA5ADB6AD81509E4FAF4FB4
:1045A000BF4FBC01CD01F9E096958795779567954A
:1045B000FA95D1F718C086819781A085B1859C01B5
:1045C000AD012150310941095109A0A5B0E00E9477
:1045D000B67061157105810541E0940720F06FEF19
:1045E0007FEF8FEF90E08093D20B7093D30B6093AB
:1045F000D40B70C480911D0B823031F040E062E139
:1046000085E10E947F2866C485E00E94420862C45A
:104610008091280B873509F0D1C0963008F45AC430
:10462000E0902A0BF12CFE2CEE248091290BE80E51
:10463000F11C57E7E516F10431F480912C0B8F71D2
:104640008093560C47C4C70186509C41029708F4DA
:1046500041C482E0E81688E1F80609F43BC4C09042
:104660002B0B1092420720910001309101016091C3
:104670001C0CECE2FBE040E0C41619F15191C901B9
:104680008527282F22952827022E26952695202536
:10469000022E269520252770082E892F269507940F
:1046A0002795902D82270694279590258227823A78
:1046B000A8E39A0719F4503609F468E04F5F9C01AB
:1046C000DBCF309301012093000160931C0C84EB3D
:1046D00092E0FC013296D490DD2039F1FC01459145
:1046E00054914217530711F00496F3CFD0921C0C4B
:1046F000FC013396859194918823B9F09927880F0E
:10470000991F880F991FFC01EC57FC4F259134919C
:104710003093210C2093200CFC01EA57FC4F85912B
:10472000949190931E0C80931D0C80913B07909167
:104730003C07892B09F4CCC36C2DC7010E94EF1DE7
:10474000DD2009F4C7C380913B0790913C07892B7A
:1047500009F0C0C30BEE11E0F80184918D1129C05E
:104760003196859194919093410780934007F80189
:104770003396E491F0E03196F0933F07E0933E07E3
:1047800010923D070E947D07DC0190933C078093C7
:104790003B07892B09F497C31A968C911A9780646A
:1047A0001A968C931A97F8013496E4911496EC9328
:1047B0008AC30B5F1F4F8111CFCF8CC3853479F42F
:1047C000953008F487C380912A0B90E0982F8827B2
:1047D0002091290B820F911D0E94CB1C7BC3823537
:1047E00009F05BCE963008F475C3E0902A0BF12CEB
:1047F000FE2CEE248091290BE80EF11CF7FE8CC0F4
:104800008091A60B882309F487C08091580C1BE582
:10481000189FC0011124865A934FDC019B964D913D
:104820005D916D917C919E97FC01468B578B608FBB
:10483000718F21E046EA5BE063E477E00E94CF42BB
:10484000811113C0F0E8FF1A80914B0790914C073B
:10485000A0914D07B0914E07811520E89207A10560
:10486000B10570F5EFE3FE222BC08091580C189F24
:10487000C0011124865A934FDC0156961D921D9259
:104880001D921C92599721E046EA5BE063E477E0D1
:104890000E94CF428823B1F21092700C1092710CDA
:1048A0001092720C1092730C21E046EA5BE063E414
:1048B00077E08AE59CE00E94CF4281112DC0C2CFF3
:1048C000AC01BD015F7366277727452B462B472B2D
:1048D00019F09F73E80EF91EA70160E070E083E411
:1048E00097E00E94F046811117C000912B0B05360E
:1048F00008F004E610E09E012F5F3F4FA80167EB30
:104900007BE083E497E00E942C44811105C08981FB
:104910009A8108171907C1F08BED91E0FC012591F0
:1049200034912115310581F0E216F30659F4FC01AA
:104930003296E491E093B70BFC013396E491E09357
:10494000B80B02C00496EACF87EB9BE09093A20AD3
:104950008093A10A1092A40A80912B0B815080931E
:10496000A30AB8C20E94BD1C87E29BE09A83898398
:10497000CE0101960E945768182F6AE370E086E224
:104980009BE00E9452719C0101969A838983232B9C
:1049900021F482E20E945F299DC26CE270E00E94D5
:1049A0005271009719F0DC011D92CD01BBE51B9FF0
:1049B000F0011124E65AF34F01A8F2A9E02D7496F4
:1049C0002591349169817A81AC01812FF901099592
:1049D00081C220931E0B0E94BD1C80911E0B823051
:1049E00008F4DBCC8091270B8F700E9495088C0116
:1049F000009709F4D2CCDC011B96ED91FC911C9739
:104A0000309709F4ACC915962C91222341F180917D
:104A10001E0B823068F0A091280BB0E0823051F07C
:104A20009091290BB92B833029F050912A0B03C0A8
:104A3000A1E0B0E051E0251720F483E30E945F2954
:104A400049C2109709F011975111515030E00E945E
:104A5000A770252FAB01BC01C80109953BC240914D
:104A6000280B5091290B60912A0B70912B0B20E0A1
:104A7000099530C20E94BD1C6DE370E086E29BE0A8
:104A80000E945271009741F4E5961FAE1EAEE59765
:104A90008EE10E945F291EC29C012F5F3F4FE59669
:104AA0003FAF2EAFE597FC01108220E0AE014459E4
:104AB0005F4FBE01625D7F4F87E29BE00E947D6990
:104AC000811108C220E0AE014D585F4FBE01655A0A
:104AD0007F4FE5968EAD9FADE5970E947D69811170
:104AE000F9C146E050E0BE01615D7F4F8BE590E08B
:104AF0008C0F9D1F01960E943571892B21F08EE34A
:104B00000E945F29E7C1AE968EAD9FADAE970E9421
:104B100045688111BDCFAE966EAD7FADAE97DB011E
:104B20008C91811104C082E20E945F29D3C19E0151
:104B30002F5F3F4F40E2CE018E960E944769811160
:104B400004C08FE30E945F29C5C118160CF4C2C1CE
:104B500080E00E945F29E5966EAD7FADE5979E01EE
:104B60002F5F3F4F40E2CE01855A9F4F0E94476919
:104B70008111B0C16C96EFAD6C97BBE5EB9FF00176
:104B80001124E65AF34F01A8F2A9E02D7E96259153
:104B90003491AE964EAD5FADAE97BE016F5F7F4F65
:104BA000CE01855A9F4FF901099594C1933019F4AC
:104BB0008D3209F4D4C80E94BD1CAE0144595F4F28
:104BC0006CE287E29BE00E940170419A10E000973E
:104BD00009F458C020E0AE01455A5F4FBE01625D46
:104BE0007F4F0E947D69EEA52BE5E29FF001112425
:104BF000E65AF34F01A8F2A9E02D7696259134915B
:104C0000BE01625D7F4F80E799E0F901099581114E
:104C100061C16D966EAD7FAD6D97AE014F5F5F4F19
:104C20007A0100E220E030E040E050E080E799E0E7
:104C30000E94EA6887FD1DC081114CC18A89877076
:104C4000863039F3EEA55BE5E59FF0011124E65AC5
:104C5000F34F01A8F2A9E02D369625913491B701C2
:104C6000CE018E96F90109958F3F09F433C1180FD3
:104C7000D0CFAE0144595F4F6CE280E090E00E94DB
:104C80000170A5CF40E0612F81E00E947F2822C102
:104C90008A3309F44FC060F4823321F130F4803359
:104CA00009F44FC08133A9F05AC0893378F523C085
:104CB000893438F48334F8F4813459F0823491F033
:104CC0004EC08A34B9F110F18A3C09F048C00E9404
:104CD00009078DE28093260B82E58093270B0E94C3
:104CE000081DF8C08DE28093260B87E58093270B83
:104CF0000E94081DEFC090E0C3979C01220F331F54
:104D0000820F931F9B5F0E94CB1CE4C0923021F462
:104D100089E40E945F29DEC08091280B8B3221F04C
:104D20008D3221F4F09AD6C0F098D4C089E40E9464
:104D30005F29D0C084E00E94420889E40E945F2974
:104D4000C9C08091280B8F718E3149F48091290B55
:104D50009CEF980F9B3118F48093560CBBC08EE1EA
:104D60000E945F29B7C00E94BD1C8091270B85342B
:104D700001F148F48F3309F492C08434E9F18A32A6
:104D800009F091C078C0823509F44BC018F4893419
:104D9000B9F189C0833509F45AC0873509F083C059
:104DA0000E94E62740E06091560C83E00E947F2835
:104DB00091C088E29BE09FA78EA78091280B8B3241
:104DC00099F08D3211F4F39810C0CE018E960E94A6
:104DD000636A9C01853020F08EE10E945F2905C046
:104DE0002093230C833008F0F39A40E06091560C36
:104DF00083E00E947F286EC08EE10E945F296AC016
:104E000088E29BE09FA78EA7CE018E960E94636AE0
:104E1000833018F48093510C5DC08EE10E945F29AD
:104E200059C08091280B8A3379F480911E0B84310C
:104E300020F080E20E945F294DC069E27BE086EAB3
:104E40009BE00E945D7146C01092A60B43C020E01B
:104E5000AE01425D5F4FBE016F5F7F4F88E29BE016
:104E60000E947D69811136C06EA57FA5CE01019695
:104E70000E948B1B2FC08091280B8B3231F08D321A
:104E800031F08EE10E945F2925C0F49A01C0F498A8
:104E900040E06091560C83E00E947F281BC089E0AF
:104EA0000E945F2917C080911E0B813009F0B5CF99
:104EB00040E06091560C83E00E947F280BC08EE199
:104EC0000E945F2907C06C2DC7010E94EF1D02C020
:104ED000D11040CCCA58DF4FEAE00C94E57089B19C
:104EE0008095881F8827881F885F4D9B02C090E0AF
:104EF00001C092E0890F0895FF920F931F93CF9303
:104F0000DF93F49A81E08093230C81E1E6EAFBE0F1
:104F1000DF011D928A95E9F7349904C080E88093F7
:104F2000C90D4FC082E090E00E949671EC0101969D
:104F300009F445C0F12C02E010E00C171D0738F40D
:104F4000C8010E948E71F80E0F5F1F4FF6CF81E0EF
:104F500090E00E948E71F81232C085E090E00E94CD
:104F60008E719EB3977E9EBB9EB3892B8EBB87E0CE
:104F700090E00E948E71182F0E946F27181306C0B0
:104F800086E090E00E948E718093560C88E090E05D
:104F90000E948E718093230CCE30D10580F08DE07D
:104FA00090E00E948E718093510C6E9740F040E12A
:104FB00050E06EE070E086EA9BE00E947E7112BCD9
:104FC00011BCCDB7DEB7E5E00C94EA701F93CF9328
:104FD000DF936EE170E082E090E00E94B4716EB306
:104FE000687185E090E00E94A6716091560C86E0A1
:104FF00090E00E94A6710E946F27682F87E090E0E2
:105000000E94A6716091230C88E090E00E94A67136
:105010006091510C8DE090E00E94A671E6EAFBE001
:1050200001900020E9F73197CF01865A9B4041E17A
:1050300050E0481B590B60E070E08A55944F0E9485
:105040004B7140E150E06EE070E086EA9BE00E9428
:105050009C7110E0C2E0D0E0CE010E948E71180F6A
:105060002196CE31D105C1F7612F81E090E00E94F9
:10507000A67112BC11BCDF91CF911F9108950F93BF
:105080001F93CF93DF93DC01FB0180E090E001965A
:105090002491C22FD0E0042F10E000581F4FC017FA
:1050A000D10721F031962F3F91F702C02F3F29F40D
:1050B000CD0101962FE32C931DC08B01080F191F02
:1050C000F801249127FF02C00196F7CFCD01F80126
:1050D000C491C03230F44C2F69EB74E00E943F2839
:1050E00005C0C7FD03C0FC01C08301960F5F1F4FC1
:1050F000C7FFEDCFDF91CF911F910F910895A0E0F1
:10510000B0E0E5E8F8E20C94CC70F82ED62EE42E50
:1051100080931B0CE7EBFBE0F093A20AE093A10A5B
:105120001092A30A1092A40A84E6DF011D928A95C8
:10513000E9F76F2DCF010E94EC6FFC018CE28083B8
:10514000B3E0FB125AC0CF01029621E0E21609F447
:105150003FC025E421836091230C0E94EC6FFC0189
:105160003196F39B02C02BE201C02DE2DC012C93AF
:105170008AE380838EB39AE29183DF01139684FFE2
:1051800002C08BE201C08DE28283CAE3CC9389E442
:1051900011968C9311976091510CCD0102960E944B
:1051A000EC6FFC01C083EC01229622E5218366EAC4
:1051B0007BE0CE010E945D71E6EAFBE001900020F9
:1051C000E9F73197CF01865A9B408C0F9D1F48C04D
:1051D00024E42183C0E02AE3FC0120836C2F0196A4
:1051E0000E94EC6F2DE3DC012C936C2F01960E9442
:1051F000EC6FCF5FC83079F733C08F010F5F1F4F5F
:105200008F2D8F7B893031F5E0E0E801219691E028
:105210009E0FF0E0EC5DFA4F8491F8018083E92F56
:10522000882311F08E01F1CFF9E0FF1210C0E801E0
:10523000EC2FE01B2196F0E0E15FFA4F849190E0C3
:105240000E941071FE01319780838111F1CFCE0150
:10525000019706C04F2D6CEA73E0C8010E943F28F9
:10526000CCE2DC01CC936D2D01960E94EC6FFC0129
:10527000C0836E2D01960E94EC6FEC018DE0888357
:10528000F3E18091570CFF1538F429E4F21621F070
:1052900081608093570C0AC08E7F8093570C809159
:1052A000570C8E7F8093570C0E94D467C75BDB40FE
:1052B000C093A30ACDB7DEB7E7E00C94E87040E0F6
:1052C00060E00E947F28089580E00E945F2980E0CE
:1052D00008958091C90D877011F00E948F1B9091E5
:1052E000C90D892F887093FF0CC08091C90D877FED
:1052F0008093C90D4098419A8091C90D87FDFCCFDC
:1053000081E00895CF93DF93D4E0C0E0029B07C013
:105310000E9469298823D1F38FEF9FEF18C0C695AB
:1053200088E08A95F1F7019906C0C06804C00E9420
:1053300069298111F1CF029BFACFC69588E08A9541
:10534000F1F7019BC068D15009F78C2F90E0DF91F5
:10535000CF910895FC019081992389F08FE3890F03
:105360008A3110F4905809C08FEB890F8A3110F4FC
:10537000905E03C09F3F09F49EE79193ECCF0895A0
:10538000CF93DF93FB01EC01A881DBE5AD9FD0015A
:105390001124A65AB34F97968C91823031F0833006
:1053A00041F0813059F481E305C081E3808386E3D5
:1053B00003C083E3808382E38183329680E280832B
:1053C00082E3818381E4828380E0DF91CF9108953D
:1053D0008EE10E945F290895CF93DF93EB016EE287
:1053E00070E00E947371FC01009719F41982188211
:1053F00037C00196998388839181903531F0953536
:1054000021F08EEA890F823058F522818381422F64
:1054100050E0405351094A30510538F4482F50E0CC
:10542000405351094A305105E8F0903529F42235AE
:10543000B9F48734A9F418C0933529F4253481F4DC
:10544000813571F411C0923529F4253449F48C3436
:1054500039F40AC0953521F4233511F4823521F051
:1054600080E003C081E001C082E0DF91CF91089528
:10547000CF93C82F90E00E94F870892B79F480EECA
:105480008C0F823058F08DED8C0F873038F081E032
:10549000CD3229F0CE3219F080E001C081E0CF9109
:1054A0000895A4E0B0E0E7E5FAE20C94CF702BE5B4
:1054B000829FC00111240FEF1FEF20E030E0AE010A
:1054C0004F5F5F4F61E070E0865A934F0E947749CB
:1054D00081110CC089819A81AB81BC81009721E048
:1054E000A207B10528F08FEF9FEF02C080E090E0A7
:1054F0002496E4E00C94EB70962F482F50E0423154
:105500005105B0F5FA01E45BFF4F0C94A17080E007
:105510000E945F29089540E062E08EE32CC040E0E5
:10552000682F87E228C040E064E081E224C040E0C8
:10553000682F1CC040E068E0992311F084E11BC093
:1055400089E119C040E069E08AE115C040E067E008
:1055500009C040E060E106C040E066E088E40BC0BE
:1055600040E0682F8FE307C040E06CE08AE403C0AE
:1055700043E6682F8FE10E947F280895A2E0B0E003
:10558000E4ECFAE20C94CD708C01FC01828581FD83
:1055900003C0838181508283F801828190E045813C
:1055A00050E04817590774F09C0121503109421B03
:1055B000530B01962081318160E070E0820F931FD0
:1055C0000E944B71F8018581882311F08F5F8283DF
:1055D0007801F1E1EF0EF11CF801428150E04150F9
:1055E0005109608171816E5F7F4F9E012F5F3F4F38
:1055F000C7010E944E45882321F061E00E947C2A69
:105600000CC0F801828190E0019729813A818217CC
:10561000930759F088E40E945F29C7010E94E4467D
:10562000C8010E941A0881E018C0C8010E94C2087F
:10563000F80182858D7F828782E08383828327A51C
:1056400085899689A789B08D821B9109A109B10925
:1056500086839783A087B18780E02296E6E00C944A
:10566000E970A0E0B0E0E7E3FBE20C94C670EC0167
:105670004FA550E060E070E0898C9A8CAB8CBC8CBC
:10568000841A950AA60AB70A8E819F81A885B985D2
:1056900088169906AA06BB0661F08E010F5E1F4FA1
:1056A000480F591F6A1F7B1FC8010E94F0468111D5
:1056B0006DC0CE80DF80E884F9848C149D04AE0434
:1056C000BF0428F4C818D908EA08FB0803C0C12C95
:1056D000D12C7601CE010E94BE2A782E81115FC0A6
:1056E000C114D104E104F10409F469C08E010F5E14
:1056F0001F4F8FA5B501A401480F511D611D711DDC
:10570000C8010E94F0469A859D7F9A878E829F826B
:10571000A886B986E881F98191E02D81211101C027
:1057200090E091959283E881F98133969DEFDF01B6
:105730001D929A95E9F7882319F1498D5A8D6B8D41
:105740007C8DC8010E94F046882361F11FC0BFEF25
:10575000CB16D104E104F104B8F48C2D8A838A813C
:10576000C81AD108E108F1088E5F8B83CE010E9430
:10577000BE2A811114C0C114D104E104F104E9F27C
:105780008D81882321F3EACF8EEFE8CF61E00E947C
:105790007C2AC8010E94E446CE010E941A087724A0
:1057A00073940DC02FA58D899E89AF89B88D821BFA
:1057B0009109A109B1098E839F83A887B987872D95
:1057C000CDB7DEB7EDE00C94E270A2E0B0E0EBEE16
:1057D000FBE20C94CB708C01DC019F962C919F977F
:1057E00055968D919D910D90BC91A02D821B910994
:1057F000A109B109F80186839783A087B187458104
:10580000442311F050E002C04EEF50E0D8016D91FA
:105810007C916E5F7F4F9E012F5F3F4FC801419685
:105820000E942C44882341F061E00E947C2AC80138
:105830000E941A0881E052C089819A81892B81F4E3
:1058400081E090E09A838983D801ED91FC911197D2
:1058500015968C91811102C08DE001C08FEF82837B
:1058600082E0F801838329813A8181E0820F82837B
:105870008581811107C0D8011A969C912E3F310570
:10588000A0F423C0F80140815181D80112969C9167
:105890001297FA01E90FF11D60816111ECCF91506F
:1058A00012969C93923088F7E6CFF801C18CD28C87
:1058B000E38CF48C458956896789708DC416D506AA
:1058C000E606F70611F0882331F09062D8011A96A7
:1058D0009C9380E003C09F7DF80192872296E8E0C8
:1058E0000C94E7708F929F92AF92BF92CF92DF920B
:1058F000EF92FF921F93CF93DF93EC016A017B013C
:10590000122F8FA54A015B01880E911CA11CB11CAE
:105910008A8584FD0AC0898D9A8DAB8DBC8D8815D2
:105920009905AA05BB0518F106C0CE010E94312BCE
:10593000882389F314C07E0181E1E80EF11CB501D2
:10594000A401C7010E94F046882359F060E00E943C
:105950007C2AC7010E94E446CE010E941A0881E019
:1059600027C0CE010E94E52B882399F0F8CFE8816B
:10597000F9818D81811102C08DE001C08FEF82839A
:1059800082E08A83CE82DF82E886F98682E30E9403
:105990005F2982E0810F8B838A81212F30E02F5F86
:1059A0003F4F482F50E0241735070CF08B8380E0E1
:1059B000DF91CF911F91FF90EF90DF90CF90BF903C
:1059C000AF909F908F900895FC012581468157816B
:1059D00060857185420F511D611D711D20E00E947F
:1059E000722C0895A0E0B0E0E8EFFCE20C94C970DE
:1059F0007C018B01EA016B01CB010E94AA29D8012D
:105A000090968C91882319F0B0E2CB0ED11CF7014F
:105A10004181528163817481E0818BE58E9FF00129
:105A20001124E65AF34F468B578B608F718F5E01BE
:105A3000F1E1AF0EB11CD7019C91899FC0011124E7
:105A400021E0A601B501865A934F0E94CF428823D8
:105A500021F061E00E947C2A20C0F801838D823011
:105A600049F44AE150E060E070E0C5010E94F04670
:105A70008AE18FA78A8522E53DE2388B2F8725EEC4
:105A80003BE23E872D8722E73CE23C872B87846000
:105A900080648A87CE010E94E52BCDB7DEB7EAE0AD
:105AA0000C94E5701F93CF93DF93EC019A85892FB7
:105AB000817090FF1AC093FD11C0CE0141960E94E3
:105AC000E446182F61E00E947C2A81E197E0988BE0
:105AD0008F8781E0111109C080E007C0ED85FE8548
