:100000000C941E030C946E6C0C9447030C944703E1
:100010000C9457030C9447030C9447030C94470328
:100020000C9447030C9447030C9447030C94470328
:100030000C9447030C94586F0C9447030C9447039B
:100040000C9447030C9447030C9447030C94470308
:100050000C9447030C9447030C9447030C944703F8
:100060000C9447030C9447030C9447030C944703E8
:100070000C9447030C9447030C944703F21FF51F9D
:10008000CD21662766274B22662701236627662730
:1000900066270F23B9246627F02466274125DD252E
:1000A00066274F268E2A9E2A922A962A9A2A9E2AC6
:1000B000B32AAD2AA12AA92A9E2A9E2ABB2ABF2A90
:1000C000B72AB72AB02A962AAE519A519A51B451FA
:1000D0009A519A519A519A519A519A519A51BC51A6
:1000E000B1519A519A51B8519A51A951B6519A5158
:1000F000BA519A51AB518D528B528D5295529552A5
:1001000095529252955295529552955295529552BA
:100110009552855295528952835295528752095C65
:10012000B05CB05C0D5CB05CB05C325CB05CB05C90
:10013000355CB05CB05C555CB05CB05C3D5CB05CA8
:10014000B05C585CB05CB05C6D5CB05CB05C865C14
:1001500051659C6576650C66106619661D66956727
:1001600036652D0FA91473096F0F470D420D3D0D14
:1001700067145C0F0D0E9E179F0D0E109D12200A26
:10018000F409010100041601013B1628035004166E
:1001900001010B1712014690A20603F1161201236A
:1001A00090A20A03A116235045545343494941558F
:1001B000544F535741502E47454E004155544F53CD
:1001C0005741502E4C535400FFE2005359535445AD
:1001D0004DA0A0A0A0A0A0A0A0A0A0000000000092
:1001E0000000000000000DA0FE0DEDC6E534B1FEDC
:1001F000FF0000000000000A2A04FF660B4F04FF06
:100200006600000000000303033B62009A050473CC
:1002100057000004047357009C0505E157009A0538
:1002200005E157000304067357017F05182D580098
:10023000000701F055003603075B6300000317B6A3
:100240005600000508CA5C00A90109F856005704C9
:100250000A125B0070040B125B01E2030CEE590002
:10026000DC030CEE5900FF030DEE59000F040EEEF7
:10027000590000040F905B00000410905B01000324
:1002800011D45B00000412D45B00000313D45B00A4
:10029000000513D45B00000314595F000005154BE3
:1002A0005500F405168D5500000519BF5D001B04AF
:1002B0001A955E0000041B2561000000000000008C
:1002C0009F9C0300B0DA04003B970400387E0400D2
:1002D000301B05000E8B05003099060081021808BE
:1002E00096C11809692E010081DD07003E3917000B
:1002F000015A090079B90A0169240B01794D0C01F1
:10030000BCB20C0172B20C01EDDA0D028D3F0E028F
:1003100047C90E0340F10F047E7310045A7511048F
:1003200020291104E918110504981105F548110553
:100330005613110585E81105CA4E1105F6DB1105A6
:10034000ABE41105E56D1105FF301105E746110518
:10035000532211056AC212060C5512065B8213075E
:100360005B2413072170130737D5130735F61307DE
:10037000C14314007048150025291600A612190063
:10038000920C08007D321A00F46A1B000000000085
:1003900000000000720595057F059D057F05C105DC
:1003A000ED05D3057F05C1050706D30521064706E0
:1003B000000091040000AE0480204F4B81005320C8
:1003C00053435241544348454482080994959697B3
:1003D000989B0103999C02039A022050524F544566
:1003E0004354204F4E9D054944204D49534D41549F
:1003F00043489E9FA0A1A253594E54415803A7BE03
:100400000004464F554E44B2070450524553454EE2
:1004100054B34F564552464C4F5720494E2007B4CF
:10042000000B4C41524745BC0220002006BD000491
:1004300006BF0020455849535453C000205459501A
:1004400045204D49534D41544348C10C424C4F4304
:100450004BC2C30A20545241434B204F52205345B4
:1004600043544F52C60C4348414E4E454CC7444935
:100470005203C80546554C4CCA44524956450401DE
:1004800059CD0920080ACE4255464645520B534DD8
:10049000414C4CCF494D414745200020494E5641E3
:1004A0004C4944E2554E4B4E4F574E20445249560C
:1004B00045434F4445E3434C4F434B20554E535423
:1004C00041424C45FF8046494C458152454144825A
:1004D000575249544583204552524F5284204E4F23
:1004E0005420854449534B20864F50454E875245F2
:1004F000434F524488504152544954494F4E2089E9
:1005000053454C45435445448A494C4C4547414C1E
:100510008B20544F4F208C4E4F20FF2D6D3634349E
:10052000702D616C6E776C736E2D637573746F6D67
:10053000005344324945432056312E302E306174E9
:10054000656E74646561643000F92C163485343E40
:100550002FA92FF52FC729582AFA300031EF29800B
:100560002DA62D7C2F4631CA3243363446696C6540
:100570000046415433320001030507090E101214DE
:1005800016181C1E44454C53455150524755535262
:1005900052454C43424D4449523F3F3F4E415434F3
:1005A000312037312038312001010000424C4F43C7
:1005B0004B5320465245452E20202020202020202D
:1005C0002020202020000000010100002020202207
:1005D00053595354454D22202020202020202020F4
:1005E0002020535953202000010401010000122251
:1005F0005344324945432020202020202020202021
:100600002220494B2032410031323853595354454E
:100610004D310053595354454D3100130C140F17ED
:1006200006180400130D140F141100303132333446
:1006300035363738394142434445460011241FBE00
:10064000CFEFD0E1DEBFCDBF14BE0FB6F894A895B2
:1006500080916000886180936000109260000FBEFE
:1006600011E0A0E0B1E0E4E8F3EE02C005900D92E5
:10067000A031B107D9F72DE0A0E1B1E001C01D9292
:10068000AD3CB207E1F70E94EB670C94C0710C948B
:10069000000028E039E040E8880F660F08F484275E
:1006A00087FB0EF483272A95B9F78F7708952F9348
:1006B0002FB72F933F938F930F9220916B0020FBC6
:1006C0004EF4009907C020911C0C223011F47BD10C
:1006D00001C0159A20916B0022FB46F4029906C0D6
:1006E00020911C0C213011F456D100C00F908F9135
:1006F0003F912F912FBF2F911895000000002A9550
:10070000F1F7089500000895009BFECF0895009929
:10071000FECF0895F894FC0188279927169815981C
:10072000009B159A029BFCCF2AE2E8DF00B001FA99
:1007300085F902FA84F92EE1E0DF00B001FA87F9C9
:1007400002FA86F929E1DADF00B001FA81F902FA4A
:1007500083F92EE1D2DF00B001FA80F902FA82F9C2
:100760002EE1CBDF30B12DE0C9DF159A28E1C6DFDD
:10077000809530837894089532B13F7000FA36F94D
:1007800001FA35F90694069432B90895F89455E0C3
:10079000442309F052604F77662321F062B16F70F5
:1007A000606203C062B16F70606415981698AADF2A
:1007B000082E009480B187708517E1F38170B9F03D
:1007C00022E19DDFD9DF23E19ADFD6DF25E195DF46
:1007D000D3DF23E194DFD0DF442349F428E18DDF28
:1007E00062B990DF80B180FF02C081FDFBCF8095B0
:1007F0008170789408950199FECF809522B12F7071
:1008000022B9019BFECF7EDF44E032B13F7087FB0F
:1008100036F986FB35F9880F880F25E46FDF32B98A
:1008200071DF4A9591F72FE36ADF22B12F702064C0
:1008300022B908950199FECF22B12F7022B9FC018F
:10084000019BFECF2BE05BDF019044E000942CE1A4
:1008500055DF32B13F7007FA36F906FA35F9000C68
:10086000000C2AE34ADF32B92AE049DF4A9589F7CA
:1008700027E143DF6A9541F72BE141DF22B12F7079
:10088000206422B9089532B13F7000FA36F901FAB6
:1008900035F932B906940694089530B131FB80F9E8
:1008A00032FB82F90895169A009B07C00199FCCF8C
:1008B0001698009B02C0019BFCCF0895F894FC01A0
:1008C000169A29E11CDF54E00190009444E0DBDF3C
:1008D00027E114DF4A95D9F715DF00C05A95A1F733
:1008E00032B13F7032B978940895F894882728E19E
:1008F00005DF1598029BFECF29E201DFCEDF880FCE
:100900002CE1FDDECADF8295869529E1F8DEC5DFA0
:10091000880F24E1F4DEC1DF159A78948095992739
:100920000895F894082E15980299FECF029BFECFE9
:100930002FE1E3DEA8DF2DE0E0DEA5DF2DE0DDDE48
:10094000A2DF2DE0DADE9FDF20E1D7DE1698159AD0
:10095000D9DE80B18095817078940895F894082E3E
:1009600015980299FECF029BFECF2FE1C6DE8BDFEA
:1009700023E1C5DE88DF23E1C2DE85DF23E1BFDEC0
:1009800082DF20E1BADE1698159ABCDE80B1809530
:1009900081707894089506D08093220C03D08093C0
:1009A0001F0C089524E00299FECF880F30B131FB6F
:1009B00080F9029BFECF880F30B131FB80F92A9578
:1009C00091F78095089506D08093220C03D08093F0
:1009D0001F0C089522E08295869599DE5EDF880FD0
:1009E00093DE5BDF2A95B9F780950895082E009471
:1009F00022E049DF8CDE47DF87DE2A95D1F70895B4
:100A0000F8949FEF88274FDF009B14C02EE176DE1D
:100A100044DF880F24E173DE40DF829586952EE166
:100A20006DDE3BDF880F24E16ADE37DF23E367DE1C
:100A30009927809578940895F894159A009B16C08C
:100A40000299FCCF1598009B11C0029BFCCF082E89
:100A5000009484E02EE053DE2CE04FDE14DF8A9514
:100A6000D9F725E14BDE169815984CDE7894089559
:100A700007FA36F905FA35F932B908951598169836
:100A800041DE32B13F70009B17C0019BFCCF082EA6
:100A900025E134DEEDDF000C24E131DEE9DF829573
:100AA000082E23E12ADEE4DF000C24E128DEE0DF6B
:100AB00023E325DE8827089581E008958827029B97
:100AC000FECF0299FECF25E21ADE30B132FB83F968
:100AD00031FB84F921E212DE30B132FB85F931FBC2
:100AE00086F90895EBDF2EE108DED7DE880F24E2D9
:100AF00006DED3DE2BE103DE809599270895DEDF45
:100B000022E1FBDDCADE880F26E1F7DDC6DE2BE140
:100B1000F6DD80959927089516981598F3DD0299CA
:100B2000FECF32B13F70032E0895F6DF83FB36F916
:100B300081FB35F929E2E3DD07C0EEDF83FB36F9FF
:100B400081FB35F921E1D9DD32B9302D82FB36F94F
:100B500080FB35F926E1D2DD32B98095302D84FB5A
:100B600036F985FB35F928E1C8DD32B9302D86FB31
:100B700036F987FB35F92BE1C0DD32B928E3BEDD5C
:100B800008958095C9DF082E2AE0B8DD7CDE2BE0D1
:100B9000B6DD79DE23E1B3DD76DE20E1AFDD73DEA5
:100BA0002DE1ABDD0895B8DF07D082952BE0A6DDFF
:100BB00003D028E3A3DD0895302D83FB36F981FBB4
:100BC00035F920E19ADD32B9302D82FB36F980FB10
:100BD00035F921E294DD32B908958827029BFECFD2
:100BE0000299FECF26E289DD58DE880F24E187DDF9
:100BF00054DE8295869521E282DD4FDE880F2CE15E
:100C00007EDD4BDE23E37BDD9927809508958827E1
:100C1000029BFECF0299FECF29E270DD3EDE880FF7
:100C200026E16BDD3ADE8295869526E267DD35DECC
:100C3000880F24E264DD31DE23E361DD99278095AE
:100C400008958827029BFECF0299FECF25E257DD4B
:100C500030B132FB80F931FB81F929E14FDD30B150
:100C600032FB82F931FB83F929E148DD30B132FBF7
:100C700084F931FB85F929E141DD30B132FB86F998
:100C800031FB87F92DE139DD80959927089580950D
:100C900043DF082E2AE032DDF6DD2DE02EDDF3DD28
:100CA00025E12BDDF0DD25E128DDEDDD23E227DD8B
:100CB0000895F8948095082E1698019BFECF27E0A2
:100CC0001CDDE1DD2DE019DDDEDD2DE016DDDBDDF7
:100CD0002DE013DDD8DD21E110DD1598169A78940A
:100CE0000895F894882716980199FECF019BFECFAE
:100CF0002CE104DDD2DD880F24E101DDCEDD82951B
:100D0000869523E2FADCC9DD880F24E1F8DCC5DD35
:100D100028E0F5DC169A7894809599270895F89440
:100D2000082E16981598029BFECF22E1E7DCABDD7A
:100D30002DE0E3DCA8DD2DE0E0DCA5DD2DE0DDDC51
:100D4000A2DD28E0DBDC1698159A2DE0D6DC78943D
:100D5000089582E085BD81EE94E0909389008093B0
:100D600088001092850010928400109280008BE021
:100D700080938100EFE6F0E08081826080830895B7
:100D8000811103C01DBC80E503C081E08DBD82E5FB
:100D90008CBD089595B19F70906D95B994B19F7079
:100DA000906B94B9811103C01DBC80E503C081E044
:100DB0008DBD82E58CBD8DB58EB508958EBD0DB40B
:100DC00007FEFDCF8EB508958FEF8EBD0DB407FEE3
:100DD000FDCF8EB50895680F791F8617970789F0A4
:100DE000411103C0FC01208101C02FEF2EBD0DB4C5
:100DF00007FEFDCF2EB5442311F0FC0120830196A0
:100E0000ECCF089585B7806885BF85BF089583B707
:100E1000817F83BF83B7816083BF089588950895DC
:100E2000F894E0E0F0E00995F89408957894089536
:100E300080E00895CF93DF9390E3899FF001112420
:100E4000DF01A557B64F8C9180FD15C0EF57F64FC7
:100E50009F012E5F3F4F8EE2E90119928A95E9F7D3
:100E60008C9181608C9384E6848388E197E09687F7
:100E70008587908B8787DF91CF910895E1E8F9E02E
:100E800080E591E0DF019C011D9221503040E1F7A7
:100E900080E191E09183808380E192E091AB80AB2F
:100EA00080E193E09093E2098093E10980E194E08E
:100EB0009093120A8093110A80E195E09093420A80
:100EC0008093410A80E196E09093720A8093710AC0
:100ED00087EB9BE09093A20A8093A10A8FE0809316
:100EE000A50AEBEAFAE080818D60806280838BE660
:100EF00099E29093AF0A8093AE0A88E197E09093CD
:100F0000B10A8093B00A0895CF93DF9380E090E018
:100F100020E3289FE001299FD00D1124FE01E55711
:100F2000F64F208120FD06C00E941A07CE018F5780
:100F3000964F09C001968630910551F786E40E94CC
:100F4000662980E090E0DF91CF9108950E948407A8
:100F5000009741F0FC0114822091F20A2F5F209348
:100F6000F20A409A0895A0E0B0E0E9EBF7E00C94B3
:100F7000D270182F20E030E000E080E090E3929FF4
:100F8000F001939FF00D1124E557F64F908190FDED
:100F900007C0811101C0022F8F5F811302C008C0FA
:100FA00080E02F5F3F4F2630310541F7811750F029
:100FB00080E3089FE0011124CF57D64FE12EE00EC9
:100FC000F02E06C086E40E94662980E090E034C0DE
:100FD000C02ED12CFE14D1F08F2D0E941A078091C3
:100FE000F20A8F5F8093F20AFE011C82E096D68B94
:100FF000C58B20E32C9DC0012D9D900D11248F5792
:10100000964F948B838B128BF394E2CF409AC60158
:10101000810F911D019720E3289FF001299FF00D7A
:101020001124EF57F64F168A158A2C9DC0012D9D6D
:10103000900D11248F57964FCDB7DEB7E8E00C9492
:10104000EE70FC01892BC1F024812F30A9F092852C
:1010500090FF12C09E7F928794FF05C08091F20A94
:1010600080518093F20A243628F48091F20A81504C
:101070008093F20A0E94DB670895CF93DF93EC011F
:10108000EF85F8890995CE010E942108DF91CF9163
:101090000895EF92FF920F931F93CF93DF93D82F72
:1010A00001E819E0E12CF12CC0E080E38E9DF00115
:1010B0008F9DF00D1124E557F64F808180FF2CC0E5
:1010C000D1FD05C0D80114968C91843628F5D2FD47
:1010D0000BC080E38E9DF0018F9DF00D1124E5572C
:1010E000F64F808186FD18C0D0FF13C0C1110EC01D
:1010F000D8011F96ED91FC915097C801099521E008
:1011000030E0811105C020E030E002C021E030E095
:10111000C22FC8010E942108BFEFEB1AFB0A005D35
:101120001F4FE6E0EE16F10409F0BFCF8C2FCDB7CC
:10113000DEB7E6E00C94F070E1E8F9E040E050E062
:1011400090E3949F9001959F300D1124D901A557EC
:10115000B64F9C9190FF07C09481981304C0C901B9
:101160008F57964F08954F5F5F4FF0964730510568
:1011700039F780E090E00895FC01928594FD08C065
:10118000906192878091F20A805F8093F20A419A7F
:101190000895FC01928594FF0BC09F7E92878091F9
:1011A000F20A80518093F20A82958F7009F4419877
:1011B00008955FEF560F2BE5829FC0011124FC01BB
:1011C000E555F34F20812F77842F90E0213009F4EB
:1011D00042C02430D1F1533228F05CED560F2BEA97
:1011E00032E002C020E030E0513130F445E1549F5C
:1011F000800D911D112433C0652F70E0583158F4D3
:1012000061517109E3E1E69FA001E79F500D1124B0
:101210004B595E4F17C05E3158F468517109E2E1D5
:10122000E69FA001E79F500D112446515E4F0AC072
:101230006E517109E1E1E69FA001E79F500D112475
:101240004A5A5D4F840F951F0AC028E2529F800DB5
:10125000911D11240895252F30E0322F2227820F6F
:10126000931F08952BE5829FC0011124FC01E555D1
:10127000F34F80818F77813019F0843081F003C083
:1012800080E091E00895643208F06352623150F0DA
:10129000693158F06F3160F081E190E0089588E2A3
:1012A00090E0089585E190E0089583E190E008954D
:1012B00082E190E00895E0911307F0911407019006
:1012C000F081E02D828380958383DB018C91848380
:1012D00011968C91858380EC868308958FE10E941E
:1012E000662981E008958FE10E9466290895EF92B2
:1012F000FF920F931F93CF93DF93F82EE90180E0C5
:1013000091E0F9019C01119221503040E1F78FEFFB
:1013100089838F2D0E94D908AC0160E070E0762FA0
:10132000652F542F4427E12C00E011E09E018F2D02
:101330000E94E735CDB7DEB7E6E00C94F070EF928F
:101340000F931F93CF93C82F8B01E42EFB01418194
:1013500060810E94D908F8014281F0E24F9FA0010C
:101360001124052E000C660B770BA0E0B0E0BA2F1D
:10137000A92F982F8827480F591F6A1F7B1F00E24B
:1013800010E021ED3AE08C2F0E94E735CF911F91BC
:101390000F91EF9008950F931F93CF93C82F8B0158
:1013A000FB01418160810E94D908F8014281F0E28D
:1013B0004F9FA0011124052E000C660B770BA0E0B7
:1013C000B0E0BA2FA92F982F8827480F591F6A1FFE
:1013D0007B1F00E210E021ED3AE08C2F0E94AB353C
:1013E000CF911F910F910895EF92FF920F931F934A
:1013F000CF93DF937C018A01EB016C96BE01FC0167
:1014000080810E94CB09811116C040E150E060EA62
:1014100070E086ED9AE00E945271F801A6EDBAE004
:101420008191882311F08D93FBCF41E0BE01F7013C
:1014300080810E949F09CDB7DEB7E6E00C94F07082
:10144000A2E0B0E0E6E2FAE00C94D2707C01FC018C
:10145000C0808BE5C89EF0011124E555F34FD08084
:10146000E1E0DE1621F0C7010E949D3530C0FB018E
:101470008081811104C0F701D582D6823BC08F35AF
:1014800059F5FB018181811127C0F70146816581F2
:101490008C2D0E94D908AC0160E070E0762F652F9A
:1014A000542F44274E5D5F4F6F4F7F4F02E010E097
:1014B0009E012F5F3F4F8C2D0E94AB3581111BC0C9
:1014C0008981F701811105C080810E946935D82E7C
:1014D00012C085838A810DC0645E7F4F8C2D0E946F
:1014E000CB09811108C08091D40AF70185838091CE
:1014F000D50A8683D12C8D2D2296E8E00C94EE70CF
:10150000EF92FF920F931F93CF93DF93EC01E8814B
:10151000F9811082E881F9818A8181836D894E8900
:101520008F89988D0196988F8F8B611102C011E081
:1015300047C0FC888F2D0E94D90828813981AC01D1
:1015400060E070E0762F652F542F4427EE24E3945B
:1015500000E011E08F2D0E94E7358111E8CF8E0168
:101560000F5E1F4FB8018C890E94CB098111DFCF1C
:101570008091D30A80688093D30A8F898093EF0A81
:101580008F89988D9093F00A82E58093EA0A88E02B
:101590008093EB0A8FE18093EC0A1092ED0A10928F
:1015A000EE0A41E0B8018C890E949F09182F811131
:1015B000BECF88E197E0988B8F87CE010E942108EB
:1015C000812FCDB7DEB7E6E00C94F070A0E0B0E07C
:1015D000ECEEFAE00C94D270C82E79018BE5C89E2F
:1015E000F0011124E555F34F80818F77833029F086
:1015F0008430E9F0813089F42AC0643270F04111FE
:101600000AC070E064527109C62FCC0FC60FD0E03B
:1016100035E3D32E27C0C9EB05C0660F660FC1E0C6
:101620004111C0E0C60FD0E022E1D22E1BC06932CA
:1016300008F04FC0D1E0C1E04111C0E0C65F862F85
:10164000880F680F660FC60F98E2D92E0BC0D62FF1
:10165000D695D695D695DE5FC62FC295CC0FC07EA7
:10166000DD24D394A0911307B091140751968C9167
:101670005197C8120AC052969C915297D91205C030
:1016800053969C915397D917B9F0E0911107F091B7
:101690001207309709F1F0931407E0931307B09302
:1016A0001207A09311078189C81239C08289D81204
:1016B00036C08389D81333C0E0911307F091140723
:1016C000808191818C0F911DF7019183808380E04F
:1016D00059C06852D2E0AFCF8F3F09F10E94840712
:1016E000FC019093120780931107892B09F446C0DF
:1016F00085E684838FEF818B8DED9DE0908B8787CE
:101700008285806482878091130790911407F093FB
:101710001407E093130790931207809311078091A9
:10172000130790911407DC011F96ED91FC915097DF
:101730000995811121C04D2F6D2D8C2D0E94D90846
:10174000E0911307F091140720813181AC0160E032
:1017500070E0762F652F542F442700E011E08C2D88
:101760000E94AB3581110EC0E0911307F091140770
:10177000C18AD28AD38BA0CF81E004C080E00E94CE
:101780006629CDCFCDB7DEB7E8E00C94EE70A2E0CD
:10179000B0E0EDECFBE00C94D670182F042F1A8209
:1017A00019829E012F5F3F4F40E00E94E60A81119F
:1017B0002FC08BE5189FF0011124E555F34F3081C0
:1017C000202F26952695269589819A810770FC0100
:1017D000E20FF11D313091F42081822F90E020E85A
:1017E00030E0002E02C0359527950A94E2F72823B1
:1017F000392381E0232B69F480E00BC0808190E0E5
:10180000002E02C0959587950A94E2F7817001C079
:101810008FEF2296E4E00C94F270A2E0B0E0E3E1F6
:10182000FCE00C94D570082FF62E142F0E94C70BE5
:1018300087FF02C081E058C0811102C080E054C01F
:101840009E012F5F3F4F40E06F2D802F0E94E60AE0
:101850008111F0CFE0911307F09114079285926007
:1018600092879BE5099FF0011124E555F34F2081F4
:10187000912F969596959695E981FA811770E90FC3
:10188000F11D213069F420E830E0012E02C03595C9
:1018900027950A94E2F7209590812923208324C07C
:1018A00081E090E0012E01C0880F0A94EAF780954C
:1018B0009081892380839E012F5F3F4F41E06F2DF0
:1018C000802F0E94E60A8111B5CFE981FA819081CB
:1018D000992309F4B3CF91509083E0911307F091CD
:1018E00014079285926092872296E5E00C94F1703D
:1018F000A2E0B0E0EEE7FCE00C94D270F82EE62E09
:10190000042F0E94C70B87FF02C011E061C088232B
:1019100011F010E05DC09E012F5F3F4F40E06E2D43
:101920008F2D0E94E60A182F8111EFCFE091130747
:10193000F09114078285826082878BE5F89EF00122
:101940001124E555F34F9081802F869586958695D5
:10195000E981FA810770E80FF11D913061F480E8A8
:1019600090E0002E02C0959587950A94E2F7908149
:10197000892B80832DC081E090E0002E01C0880F6C
:101980000A94EAF79081892B80839E012F5F3F4F55
:1019900041E06E2D8F2D0E94E60A182F8111B5CFE0
:1019A000C980DA80F60100816E2D8F2D0E943209E8
:1019B000202F30E02817390708F0ABCF0F5FF60172
:1019C0000083E0911307F09114078285826082877B
:1019D000812F2296E8E00C94EE70A0E0B0E0E3EFF7
:1019E000FCE00C94D170FC017B01B42EC22FD0819D
:1019F000CD2ED12C8BE5D89FD0011124A555B34F06
:101A00008C91813011F4468101C040E065818D2FB9
:101A10000E94D908AC010C2F10E08BE58C9DF001E1
:101A20008D9DF00D1124EE5AFF4FEB0DF11DE65A7E
:101A3000F34F808160E070E0762F652F542F4427AC
:101A4000480F511D611D711D97018D2F0E94AB35EF
:101A500081110DC02FEF2C0FF701E20FF11D9081C6
:101A6000903A11F490E290832150B0F701C081E0E8
:101A7000CDB7DEB7E9E00C94ED7025E044E00E94BC
:101A8000ED0C089520E143E00E94ED0C0895CF9203
:101A9000DF92FF920F931F93CF93DF93CDB7DEB703
:101AA00027970FB6F894DEBF0FBECDBF6B019BE545
:101AB000899FF0011124DF01A555B34FFC90A1E0EF
:101AC000FA120CC000E110E09B0144E051E060E03C
:101AD00070E00E94AB358823A1F022C08983EB57C8
:101AE000F34F86E0DE01129601900D928A95E1F7A0
:101AF000CE0101960E94420D882319F0FF24F39431
:101B00000FC0F6013F96D60150961C92EC15FD05CC
:101B100031F08081803219F431971182F7CFF12CA6
:101B20008F2D27960FB6F894DEBF0FBECDBFDF9185
:101B3000CF911F910F91FF90DF90CF900895A2E079
:101B4000B0E0E5EAFDE00C94D270FC01DB018C9181
:101B5000808315966C911597618316964C91169714
:101B600042831382CC908BE5C89ED0011124A555E9
:101B7000B34FDC9081E0D8121AC07F018C2D0E94F7
:101B8000D908AC0160E070E0762F652F542F442710
:101B900002E010E09E012F5F3F4F8C2D0E94AB357D
:101BA000811106C08981F70181838A818283D12CCA
:101BB0008D2D2296E8E00C94EE70EF92FF920F9339
:101BC0001F93CF93DF93EC019A85892F827091FF49
:101BD0001FC0F9888091590CF816C8F44B896A899E
:101BE0008F2D0E94D90828813981AC0160E070E016
:101BF000762F652F542F4427EE24E39400E011E064
:101C00008F2D0E94E7359A859D7F9A8701C080E0DD
:101C1000CDB7DEB7E6E00C94F070EF92FF920F9331
:101C20001F93CF93DF937C01D62FC42F122F442311
:101C300091F08BE5689FF0011124E455F34F828108
:101C4000841748F0642F8D2F0E943209212F30E035
:101C50002817390730F0412F6C2F82E40E94862824
:101C600016C0412F6C2F8D2F0E94D908F7012081BB
:101C70003181AC0160E070E0762F652F542F44274E
:101C8000EE24E39400E011E08D2F0E94E735CDB7FC
:101C9000DEB7E6E00C94F070A0E0B0E0E2E5FEE034
:101CA0000C94CE70C82FD62FF42E5901480166230C
:101CB00091F08BE5C89F80011124F801E455F34FA2
:101CC0008281861740F08C2F0E943209CF2CD12CB4
:101CD000C816D90620F04F2D6D2F8E2D6AC0F80141
:101CE000E555F34F108117FF6DC08091F30AC813BB
:101CF00005C08091F40AD81709F450C048E250E0BA
:101D000061E070E085EF9AE00E945271812F8F7739
:101D1000833011F1843089F1823009F065C06D2F74
:101D20008C2F0E9432098C0140E06D2F8C2F0E9475
:101D3000D908AC0160E070E055556D4F7F4F25EF3D
:101D40003AE08C2F0E94AB35823008F04DC0C09332
:101D5000F30AD093F40A22C06D2F8C2F0E9432090F
:101D60008C0140E06D2F8C2F0E94D908AC0160E0FF
:101D700070E05A5A6A4F7F4FE2CF6D2F8C2F0E942E
:101D800032098C0140E06D2F8C2F0E94D908AC01E4
:101D900060E070E05058634F7F4FD1CFF601ED50B7
:101DA000F54F82819EEF980F9A3030F44F2D6D2FB2
:101DB0008E5E0E94862818C08F3021F48AE40E942B
:101DC000662912C04F2D6D2F8C2F0E94D908AC01AF
:101DD00060E070E0762F652F542F44278401950131
:101DE0008C2F0E94AB3501C082E0CDB7DEB7ECE0AE
:101DF0000C94EA70EF920F931F93CF93DF93EC0153
:101E0000E881F98180818D8B81818E8B83E4E82E3E
:101E100000E011E09F01418160818C890E944C0E9D
:101E2000882329F0CE010E94210881E010C092E0B1
:101E30009B83E881F98120819A85211104C0218149
:101E40002A83906203C02FEF2A839F7D9A87DF91B8
:101E5000CF911F910F91EF9008950F931F93CF9300
:101E6000DF938C01EA01645E7F4FFC0180810E9458
:101E7000CB0981111CC0E881F9818091D40A80834B
:101E8000E881F9818091D50A8183F80180818C8B6A
:101E90008A852AEF3EE03E872D872EE639E03C8793
:101EA0002B87846080648A87CE010E94FA0EDF91BE
:101EB000CF911F910F910895EF920F931F93FC0103
:101EC000862F642F422F2081318192E4E92E00E099
:101ED00011E00E944C0E1F910F91EF900895AF9268
:101EE000BF92CF92DF92EF920F931F93CF93DF9326
:101EF00000D0CDB7DEB76C015B018CE1A80EB11C40
:101F0000B501F60180810E94CB09882311F08FEF83
:101F100029C08091D40A89838091D50A8A834A8115
:101F20006981F60180810E94780C83E4E82E02E04A
:101F300010E09E012F5F3F4F4A816981F601808149
:101F40000E944C0E8111E3CF89818111E8CF10925C
:101F5000D30A41E0B501F60180810E949F098111F9
:101F6000D6CF81E00F900F90DF91CF911F910F910D
:101F7000EF90DF90CF90BF90AF900895EF920F93C6
:101F80001F93CF93DF93EC018B818830B1F483E40E
:101F9000E82E02E010E021ED3AE04A816981888173
:101FA0000E944C0E811124C08091D10A882379F1BE
:101FB00089838091D20A8A831B821981112399F027
:101FC00008818BE5089FF0011124E455F34F8281CD
:101FD000811748F0612F802F0E9432092A8130E05A
:101FE0002817390738F04A81612F83E40E94862838
:101FF00081E00EC0BE016F5F7F4F802F0E94CB0932
:102000008111F6CF8B818F5F8B8380E001C08FEFD2
:10201000DF91CF911F910F91EF9008950F931F9330
:10202000CF93DF938C01EB01C8010E94BE0F811199
:1020300067C08091D30A8823B9F38DE2FE01119223
:102040008A95E9F784E08B8F8091D30A8058982F86
:102050009770973009F4887F898BF801818192818C
:10206000A3818C8F9D8FAE8F8E8D81508E8F8091AE
:10207000F00A90E0982F88272091EF0A820F911D97
:102080009B8B8A8B8FEF8C8B80E1E6EDFAE0DE0193
:1020900001900D928A95E1F78FE0FE01E80FF11DA6
:1020A0009081903A09F410828150B8F78091EE0A3D
:1020B0006CE30E945270998F8091ED0A68E10E9452
:1020C0005270988F8091EC0A90E001976FE170E078
:1020D0000E9472708F5F8F8B8091EB0A90E0019766
:1020E0006CE070E00E9472708F5F8E8B8091EA0AC4
:1020F00064E60E945270903508F49C599D8B80E0F4
:10210000DF91CF911F910F910895A2E0B0E0EBE82D
:10211000F0E10C94D8701A821982611103C080E03A
:1021200090E040C09BE5899F90011124F901E4559E
:10213000F34F9281961798F3F901E555F34F90818B
:102140009F779E012F5F3F4F41E0913019F50E942C
:10215000E60A8111E4CFE981FA81BF01605E7F4F19
:1021600040E050E03191232F269525753575230FDA
:10217000922F9373269526952373920F892F8F7034
:1021800092959F70980F490F511D6E177F0751F759
:10219000CA0108C00E94E60A8111C1CFE981FA8113
:1021A000808190E02296E2E00C94F470A0E0B0E030
:1021B000ECEDF0E10C94CF70B82EEB017A01C82E53
:1021C000D12C8BE5B89E80011124F801E555F34F21
:1021D00080816881813069F5162F612F8B2D0E94D7
:1021E00085102881892B91F41F5F8BE58C9DF00170
:1021F0008D9DF00D1124E455F34F8281181711F0D5
:10220000111101C011E01213E8CF25C0121303C051
:10221000F701008101C000E0402F612F8B2D0E944B
:10222000C70B811102C00F5FF7CF1883F70100833E
:102230008CC00455134FF8018081681311C08B2D99
:102240000E948510892B49F480911B0C811103C0D9
:1022500088E40E94662981E079C0F801968002C076
:10226000F8019580A12CF2E0FA15B0F168818B2D70
:102270000E948510892BA1F58881F801908189172A
:1022800010F4815012C021E0280F28839BE59C9D0B
:10229000F0019D9DF00D1124E555F34F90819F773E
:1022A000933021F4253311F48E5F88838881811166
:1022B00007C0F80180818F5F8883F7011082A394A3
:1022C0009881F8018281891770F680818150888316
:1022D000F7011082A394C7CF83E0A81609F4B4CF06
:1022E000F7018081192D180F108368818B2D0E94B2
:1022F0003209212F30E02817390740F0181B19F454
:10230000F701108203C01150F701108303E6F701B3
:10231000408168818B2D0E94C70B18169CF00150DC
:10232000A0F0F701208111E0120F108368818B2D3E
:102330000E943209212F30E02817390740F3F701B6
:102340001082E5CF002309F47FCF80E0CDB7DEB760
:10235000EBE00C94EB70A0E0B0E0E1EBF1E10C9469
:10236000D0706C01EB01BC01CE010E949F0DCE012B
:102370000E94BE0F181614F481E0DAC0811108C063
:102380008091D30A8111F3CF9B8191509B83D0C060
:1023900019810A815E01BFEFAB1ABB0AAE014E5F25
:1023A0005F4FB501F60180810E94D6108111E4CF04
:1023B00089818093D10A8A818093D20AD601FC90C8
:1023C000402F612F8F2D0E94D908AC0160E070E092
:1023D000762F652F542F4427E12C02E010E021EDE9
:1023E0003AE08F2D0E94E7358111C6CF4A8169817D
:1023F000F60180810E940D0C8111BECFD601FC90A8
:10240000BBE5FB9EF0011124E555F34F808181303F
:1024100061F080E2E1EDFAE0DF011D928A95E9F7D3
:102420008FEF8093D20A10E071C0F601468165817A
:102430008F2D0E94D908AC0160E070E0762F652FE7
:10244000542F44274C5D5F4F6F4F7F4F03E010E0E8
:1024500021ED3AE08F2D0E94AB3581118DCF609137
:10246000D10A6623B1F2D601FC904091D20A8F2D99
:102470000E94D9084091D30A50E060E070E0445EC9
:102480005F4F6F4F7F4FA0E0B0E0BA2FA92F982F7A
:102490008827480F591F6A1F7B1F02E010E024EDB8
:1024A0003AE08F2D0E94AB35811166CF8091D40A1E
:1024B0009091D50A01969093D50A8093D40AF6019B
:1024C000F0804091D20A6091D10A8F2D0E94D908E4
:1024D0004091D30A50E060E070E0445E5F4F6F4F80
:1024E0007F4FA0E0B0E0BA2FA92F982F8827480F80
:1024F000591F6A1F7B1FEE24E39424ED3AE08F2DD1
:102500000E94E735882309F484CF36CF1B8340E04F
:10251000B501D6018C910E949F0981112DCF109297
:10252000D20A1F5F183091F79FEF9093D20A1B8257
:10253000CDB7DEB7EAE00C94EC70A5E1B0E0E3EAD9
:10254000F2E10C94CE706C017B01DC01EC91BBE5F7
:10255000EB9FF0011124E555F34F8081813011F09C
:102560008FE11FC00E94A6075C01892B09F42CC1D2
:10257000BE016F5F7F4FC6010E94AB11811124C164
:10258000F60185818D8B86818C8BAE014C5E5F4F11
:10259000BE016B5E7F4F80810E94D610882321F0A0
:1025A00088E40E94662910C14C896D89D6018C91FE
:1025B0000E940D0C811108C18D898B8B8C898A8BAF
:1025C000AE014E5E5F4FBE016D5E7F4FF6018081B2
:1025D0000E94D610882351F088E40E9466294C8915
:1025E0006D89D6018C910E94780CEEC04A896B8966
:1025F000F60180810E940D0C8111E6C0D501ED919C
:10260000FC9180E091E0DF019C011D92215030405F
:10261000E1F7D5018D919C9149E150E060EA70E0CD
:1026200004960E945271D501ED91FC9111978B890E
:1026300080838A89818388E48283ED91FC918D89EE
:1026400080A38C8981A3D60115968C91159782A3BE
:1026500016968C9183A38A8184A38B8185A38C8118
:102660008295880F807E8E5F86A34701D501ED910C
:10267000FC913496D7018D91882311F08193FBCF83
:10268000D501ED91FC91D7018C91868B11968C919F
:10269000878B81E3818F88E4828FF601F0804C89FB
:1026A0006D898F2D0E94D908D5012D913C91AC01E7
:1026B00060E070E0762F652F542F4427E12C00E076
:1026C00011E08F2D0E94E73581117EC0D501ED917B
:1026D000FC9180E091E0DF019C011D92215030408F
:1026E000E1F7D501ED91FC918FEF8183F601F08048
:1026F0004A896B898F2D0E94D908D5012D913C9173
:10270000AC0160E070E0762F652F542F44278F2DA9
:102710000E94E735811158C08FE1E3EDFAE0DF0157
:102720001D928A95E9F740E150E060EA70E086ED9D
:102730009AE00E945271E6EDFAE0D4018D914D01CC
:10274000882311F08193F9CF86E88093D30A8D898D
:102750008093D40A8C898093D50A82E08093EF0A13
:1027600082E58093EA0A88E08093EB0A8FE1809308
:10277000EC0A1092ED0A1092EE0AF601D0804B811D
:102780006A818D2D0E94D9084C81F0E24F9FA001F3
:102790001124052E000C660B770B4E5F5F4F6F4FB9
:1027A0007F4FA0E0B0E0BA2FA92F982F8827480FBD
:1027B000591F6A1F7B1FEE24E3940EE110E023ED06
:1027C0003AE08D2D0E94E7356596ECE00C94EA70B6
:1027D000A2E0B0E0EEEEF3E10C94D1706C01DC010C
:1027E00055968C9155978A8356968C9156978983E6
:1027F00057968D919C915897019658969C938E93DD
:102800005797ED91FC9111971082ED91FC911197E2
:1028100012968C9112978183AE014F5F5F4FBE017C
:102820006E5F7F4F54968C910E94D610882321F0C2
:102830001A82F0901B0C13C0D601ED91FC911197F8
:102840008A818083ED91FC911197498141836A814E
:1028500054968C910E940D0C811130C0F12CF60120
:10286000B488468965898B2D0E94D908D6012D919F
:102870003C91AC0160E070E0762F652F542F442727
:10288000EE24E39400E011E08B2D0E94E735182F31
:10289000811114C08A81F601858B8981868B82E043
:1028A000838381E0828382858D7F8287C6010E9437
:1028B000C908FF2039F08F2D0E946629C6010E94A9
:1028C000210811E0812F2296E9E00C94ED70FF922F
:1028D0000F931F93CF93DF93F82EC1E000E010E039
:1028E0002BE5F29EC0011124FC01E455F34F228137
:1028F0002C1748F1FC01E555F34F80818F7781302B
:1029000059F0843019F4C832B1F41BC0C231C9F097
:10291000C533B9F0813079F4C13069F4D0E44D2F7A
:1029200061E08F2D0E94C70B181614F40F5F1F4F24
:10293000DF5FA9F706C06C2F8F2D0E948510080F4E
:10294000191FCF5F69F6C801CDB7DEB7E5E00C947B
:10295000F170A1E1B0E0EFEAF4E10C94CB706C010E
:102960005B01142F7901DC01EC91BBE5EB9FF001D9
:102970001124E65AF34F83A981FD02C08AE19FC06A
:102980000023B9F0A901C6010E942D0F80911B0CF4
:10299000811134C1D701ED91FC918081882309F424
:1029A0009BC0D7011D96ED91FC911E97C70109951B
:1029B000EDCFBE016F5F7F4FC6010E94AB11811149
:1029C0001DC18FE1E3EDFAE0DF011D928A95E9F781
:1029D00040E150E060EA70E086ED9AE00E945271BA
:1029E000F501A6EDBAE08191882311F08D93FBCF1C
:1029F0001093D30AF6015080852C912C2BE5529E22
:102A0000F0011124E555F34F8081813011F001E090
:102A100029C012E0612F852D0E948510892B09F0B5
:102A20003FC01F5F8BE5889DF001899DF00D11244B
:102A3000E455F34F8281181729F0112319F0123051
:102A400049F7DCC011E0E6CF102FD5016C91601B77
:102A5000852D0E948510892BD1F40195101614F450
:102A600001E0011B602E002E000C77082BE5289D4D
:102A7000C001299D900D11249C012455334F59010B
:102A8000D90112968C9190E068167906ECF2F50166
:102A9000828190E06816790669F0F5011081101BBB
:102AA00000E0612F852D0E943209202F30E0281789
:102AB000390740F080911B0C8111A0C088E40E946E
:102AC00066299CC0402F612F852D0E94C70B1816C8
:102AD0000CF44CC00F5FE5CFF501848D958DA68D6C
:102AE000F701818B928BA38B8091F00A90E0982F55
:102AF00088272091EF0A820F911D0197908F878B75
:102B000082858B7F828792819F5F9383911104C01E
:102B10008260F701828704C08D7FD7011A968C935B
:102B200088EE93E1F7019687858780E89AE0908B9D
:102B300087878EE699E094878387828588608064A2
:102B4000828782E58093EA0A88E08093EB0A8FE12E
:102B50008093EC0A1092ED0A1092EE0AB7016F5EB4
:102B60007F4F41E084890E949F0948C01093D40A96
:102B70000093D50A402F612FD6018C910E940D0C35
:102B800081113CC082E58093EA0A88E08093EB0AD9
:102B90008FE18093EC0A1092ED0A1092EE0A41E068
:102BA000BE016E5F7F4FD6018C910E949F098111FB
:102BB00025C0F701828588608064828782E08383F4
:102BC000828380E89AE0908B878788EE93E19687EE
:102BD00085878EE699E0948783870190F081E02DC8
:102BE0008DE082838A819B81AC81F701818B928BFE
:102BF000A38BD6018C91848B158B068B6196EFE0AD
:102C00000C94E770A0E0B0E0E8E0F6E10C94D0703E
:102C10007B01EA0169012BE5829FC0011124FC01BF
:102C2000E455F34F5F0183818B01080F111D49E1CA
:102C300050E060EA70E0C8010E945271FE01D801C4
:102C40009E012F5E3F4F8191882329F0E217F30701
:102C500011F08D93F8CFF5018481D701A80FB11D34
:102C600085E0F60101900D928A95E1F7CDB7DEB7C8
:102C7000EAE00C94EC70A0E0B0E0E1E4F6E10C9442
:102C8000D270F82EEB016A018901E12C4E2D61E032
:102C90008F2D0E940D0CE39423E2E212F7CFB801CE
:102CA00088E40E945B09E0911307F0911407A0816A
:102CB000B1813BE5F39EF0011124E455F34F82818D
:102CC00018968C93E881F98180E091E0DF019C0106
:102CD0001D9221503040E1F7EE24E394E08282E23D
:102CE000818388E4828391E3D80113969C931397A0
:102CF00014968C93688179819801A6018F2D0E948A
:102D00000216E881F981E0A2E881F981E1A2288137
:102D10003981E12C00E011E040E051E060E070E03A
:102D20008F2D0E94E735811107C02881398142E249
:102D300061E08F2D0E947709CDB7DEB7E8E00C94F3
:102D4000EE70CF92DF92EF92FF920F931F93CF938B
:102D5000C82F8B016A01790140E062E10E940D0CED
:102D600041E062E18C2F0E940D0CE0911307F0917D
:102D700014070190F081E02D82E1808381E081835E
:102D800081E4828392E3F70193838483E0911307C4
:102D9000F0911407608171819701A6018C2F0E9428
:102DA0000216A0911307B0911407ED91FC911197B1
:102DB000E755FF4F80EA8083ED91FC91E655FF4F88
:102DC0008083F8012081318141E062E18C2F0E94F3
:102DD0007709CF911F910F91FF90EF90DF90CF90E7
:102DE0000895CF93DF93D82F0E94A116E091130787
:102DF000F09114070190F081E02D80E88383C0E01A
:102E00004C2F65E38D2F0E940D0CCF5FC331C1F7AE
:102E1000DF91CF910895A0E0B0E0E1E1F7E10C94FB
:102E2000D270C82F6B017A018901D0E04D2F68E282
:102E30008C2F0E940D0CDF5FD430C1F7E091130797
:102E4000F09114070190F081E02DD8E2D083E09159
:102E50001307F09114070190F081E02D82E0818347
:102E6000B80184E40E945B0969E28C2F0E948510FE
:102E7000E0911307F09114070190F081E02D10828A
:102E8000E0911307F09114070190F081E02D8FEF8E
:102E90008183B80184E40E945B09E0911307F091FB
:102EA0001407828582608287D601ED91FC9111978B
:102EB000D08383E0818384E4828393E3F801938366
:102EC00084836D917C919801A7018C2F0E9402163A
:102ED000D6012D913C91E12C00E011E040E058E159
:102EE00066E070E08C2F0E94E735811108C0F60182
:102EF0002081318143E068E28C2F0E947709CDB7B1
:102F0000DEB7E8E00C94EE708091130790911407FF
:102F1000009731F0DC011F96ED91FC9150970995D7
:102F20008091110790911207009731F0DC011F96F4
:102F3000ED91FC915097099580E00895ACE0B0E0E8
:102F4000E4EAF7E10C94C870682E712C2BE5829F9F
:102F5000F0011124E65AF34FDF01AF5ABF4F9C91A5
:102F6000913041F497A5913009F0E6C090A99130D5
:102F700009F0E2C02A011B01F82E0E94A6076C018D
:102F8000009709F4D9C0DC011A968C911A978860D1
:102F90008F7B1A968C93C6010E94BC08D601ED91D6
:102FA000FC9180E091E0DF019C011D9221503040B6
:102FB000E1F70E948417E0911307F09114078FEF57
:102FC000818BE0911107F0911207309709F0818B06
:102FD0004114510409F43FC0AA24A394B12C8BE5F9
:102FE000869DF001879DF00D1124E455F34F8281F9
:102FF00090E08A159B0540F1812C912C6A2D8F2D34
:103000000E94320988169906D8F4482D6A2D8F2D12
:103010000E94D908D6012D913C91AC0160E070E08E
:10302000762F652F542F4427E12C00E011E08F2DDF
:103030000E94E735811180C0BFEF8B1A9B0ADECF5B
:10304000EFEFAE1ABE0ACBCFD2018C9188871196D2
:103050008C9189873DC0F9828BE5869D8001879D93
:10306000100D11240455134FF80180818E8381E0E7
:103070008F83BE01685F7F4FCE0101960E943D0D98
:1030800081115AC0D8019C90A12CB12C692D8F2D93
:103090000E943209A816B906D8F44A2D692D8F2D41
:1030A0000E94D908F60120813181AC0160E070E016
:1030B000762F652F542F4427E12C00E011E08F2D4F
:1030C0000E94E735811138C0FFEFAF1ABF0ADECF8B
:1030D00080EA8A8701E010E02BE5269DC001279D4C
:1030E000900D1124FC01E455F34F228130E02017AC
:1030F0003107A8F0A12CB12C602F8F2D0E9432092E
:10310000A816B90648F44A2D602F8F2D0E94780C1E
:103110002FEFA21AB20AF0CF0F5F1F4FDDCFFC01D5
:10312000ED54F34F0190F081E02D9E01285F3F4F59
:10313000A101B6018F2D09952C96E2E10C94E47063
:10314000A0E0B0E0E6EAF8E10C94D070EC019B015D
:103150009881A92EB12C4BE5949FC0011124FC014C
:10316000E65AF34FC3ACD4ACE5ACF6ACC114E6E51B
:10317000DE06E5E0EE06F10409F446C0D0F4C11421
:103180004BEAD40642E0E406F104A1F1EBEACE16E4
:10319000EDEADE06E2E0EE06F10409F053C049E094
:1031A00050E06DE971E08455934F0E942C7112E854
:1031B0007BC0C114F0E8DF06FCE0EF06F10471F11A
:1031C00040E8C4164CE8D4064CE0E406F10481F172
:1031D000E6E5CE16EBE5DE06E5E0EE06F10491F558
:1031E00049E050E064E971E08455934F0E942C71EE
:1031F00013E85AC049E050E06DE971E08455934FFF
:103200000E942C7112E050C049E050E064E971E086
:103210008455934F0E942C7113E046C049E050E062
:103220006BE871E08455934F0E942C7114E03CC010
:1032300049E050E06BE871E08455934F0E942C7197
:1032400014E832C0D701C601AA27BB27892B8A2BD5
:103250008B2B21F08FE40E9466295BC0C114D1043E
:10326000F3E0EF06F10461F46EE270E0C9010E9440
:103270007A71FC012281263319F48381843351F35E
:103280008BE58A9D80018B9D100D112449E050E053
:1032900062E871E0C8018455934F0E942C71F801D7
:1032A000E255F34FE08211E08091130790911407EB
:1032B000892BA1F40E948407FC019093140780934A
:1032C0001307892B31F185E684838FEF818B8DED98
:1032D0009DE0908B87878285806482878BE58A9DBD
:1032E000F0018B9DF00D1124DF01A555B34F1C9308
:1032F000E455F34F80818D8381818E838091100707
:103300008F5F8093100717FF06C08FEF8093F30A3B
:1033100002C081E001C080E0CDB7DEB7EAE00C94E6
:10332000EC70CF93DF93EC01FB01A081B1818D8123
:103330008C93A8818BE5A89FD0011124A555B34F8C
:103340008C91A081B181813021F48E8111968C9372
:1033500002C011961C928881848B82852AEF3EE000
:10336000368725872EE639E034872387846080649A
:103370008287CF010E94FA0EDF91CF91089580914C
:103380001307909114070E942108109214071092BD
:10339000130780911107909112070E942108109243
:1033A000120710921107109210070895CF93C82F9B
:1033B0008091130790911407009779F0DC011F9614
:1033C000ED91FC9150970995E0911307F091140746
:1033D00081898C1302C08FEF818B809111079091AE
:1033E0001207009779F0DC011F96ED91FC91509740
:1033F0000995E0911107F09112078189C81302C065
:103400008FEF818B80911007815080931007882364
:10341000A1F080911307909114070E9421088091D8
:103420001107909112070E94210810921407109220
:1034300013071092120710921107CF91089590E090
:10344000992329F080FD03C081FD04C004C0419A86
:103450009111FACF409A4091CB0D5091CC0D465F1F
:103460005F4F2091CB0D3091CC0D241B350B37FDD8
:10347000F8CF419840984091CB0D5091CC0D465FCC
:103480005F4F2091CB0D3091CC0D241B350B37FDB8
:10349000F8CF9F5F9230A1F60895A2E0B0E0E3E597
:1034A000FAE10C94CC7070901B0C10921B0C85E010
:1034B0000E9449080E94A607009709F4CDC0FC01AC
:1034C000C080D180F59AF601E958FF4F1082F12CA7
:1034D000E12CA12CB12C809115078F1508F47EC02A
:1034E000A50160E070E08DE197E00E94F746811150
:1034F0000CC09E012F5F3F4F47E750E0B6018DE1C2
:1035000097E00E943344882321F061E00E94832ADF
:10351000A3C089819A818737910520F4F601E80FCD
:10352000F91F108289819A81892B29F08601612CEB
:1035300090E0E12C17C0809115078F3F29F4FA9491
:10354000F0921507F12CC5CF10921507FBCF8D30E7
:10355000C9F08A30B9F08A3389F08B3341F0803278
:1035600051F48F01F80181918111F1CF13C099239A
:1035700009F476C005C08930A1F302C0EE24E394BB
:1035800091E0EFCFF8014F0181918D30E1F38A3066
:10359000D1F301C04801A114B10461F448E050E046
:1035A00066EA71E0C6010E941F71892B19F4F59833
:1035B000662463948C189D08A80CB91C61108BCFED
:1035C000F394F8011082A8014C195D094F5F5F4F19
:1035D000B60187E29BE00E9449717DCF809116077A
:1035E0009BE5899FF0011124E65AF34F21A932A9E6
:1035F0002954354011F00E946935A0911607A09317
:10360000580CFBE5AF9FD0011124AB57B34F86E0B8
:10361000E7E1F7E001900D928A95E1F7E1100AC029
:103620008091270B8F3231F08AE38093260B06E2DC
:103630001BE002C007E21BE0F59B03C0C8010E942B
:103640002870C8010E943C1E80911B0C882331F019
:10365000893421F070921B0C80E005C081E003C02A
:10366000662463948DCF2296EEE00C94E870FF926E
:103670000F931F93CF93DF93EC018B01F42EF298FD
:1036800080911F0790912007892B59F08DE197E0D9
:103690000E94EB468EE1EDE1F7E0DF011D928A9595
:1036A000E9F7F80180818823C1F149815A816B8152
:1036B0007C81E8818BE58E9FF0011124E65AF34F5F
:1036C000468B578B608F718F9881899FC001112421
:1036D00021E0A8016DE177E0865A934F0E94D6421F
:1036E000882321F061E00E94832A17C087E0FE0151
:1036F000A6E1B7E001900D928A95E1F7FF2021F055
:103700008FEF8093150702C0109215070E944D1A83
:10371000882319F083E00E941F1ACDB7DEB7E5E0D9
:103720000C94F17040E00E94371B0895A3E6B0E0CE
:10373000ECE9FBE10C94D77080911F079091200772
:10374000892B09F0D9C06BEB71E081ED9AE00E9402
:1037500035718091580C9BE5899FF0011124EB573E
:10376000F34F96E0ABE5B0E0AC0FBD1F11960190B2
:103770000D929A95E1F76C968FAF6C978091C90D79
:1037800081FF02C041E001C040E061ED7AE0CE017E
:10379000855A9F4F0E94371B80911F0790912007E9
:1037A000892B09F0A3C08091C90D82FF9BC06EEAEE
:1037B00071E0CE01855B9F4F0E943571A0964CADA4
:1037C0005DAD6EAD7FADA0976C968FAD6C971BE530
:1037D000189FC00111249E01255C3F4F865A934FCC
:1037E0000E946A4881117EC06C968FAD6C97189FBD
:1037F000C00111242AE0AE01455B5F4FBE016F5F3F
:103800007F4F865A934F0E94D64281116BC0409AD7
:1038100081ED9AE09AAF89AF10E0BE01615E7F4F03
:10382000CE01CB960E949D4881114BC08CA5882368
:1038300009F447C08FA184FDF0CFCE018C960E9481
:103840000631823051F78091D10A811104C0BE0146
:10385000645D7F4F02C061ED7AE0FB0101900020C2
:10386000E9F73197AF01461B570B9E012E593F4F89
:10387000CE0101960E945545882311F011E021C028
:10388000A4968EAD9FADA497892BC1F38DE08CA734
:103890008AE08DA79E012E593F4F42E050E0BE01C5
:1038A000645D7F4FCE0101960E9455458111E6CFA0
:1038B00011E0A4968EAD9FADA497892B09F0ADCFF2
:1038C000DDCFCE0101960E94EB464098112351F0C6
:1038D00040E0BE01655B7F4FCE01855A9F4F0E943D
:1038E000371BF29A80E00E94662901C0F29A80910B
:1038F000C90D1092C90D3AC08091C90D80FF10C04A
:10390000809115078F5F809315078091C90D8E7F79
:103910008093C90D0E944D1A882341F182E024C092
:103920008091C90D81FF10C080911507815080934F
:1039300015078091C90D8D7F8093C90D0E944D1A86
:103940008823A1F081E010C08091C90D82FF0EC0D4
:10395000109215078091C90D8B7F8093C90D0E942D
:103960004D1A882319F083E00E941F1ACD59DF4FAA
:10397000E3E00C94F3708EE1EDE1F7E0DF011D92DE
:103980008A95E9F7F298089580911E0B90E04AE736
:1039900050E0481B590B60E070E08A5D944F0E9434
:1039A00052710895AC0180911C0C811104C080916A
:1039B000420780931C0C90911C0C26E032E0F90128
:1039C0003296E491EE23A9F0E91310C0F901659154
:1039D00074916417750751F4F90133964591549128
:1039E000F90135968491FA0109950CC02A5F3F4F81
:1039F000E6CF4091000150910101652F772782E6C3
:103A00000E9486288FEF9FEF909301018093000121
:103A100080911C0C8093420710921C0C0895A6E024
:103A2000B0E0E5E1FDE10C94D2700E94C41C6DE2AF
:103A300070E086E29BE00E9459717C01892B09F4B9
:103A4000CEC08E010F5F1F4F84E0D8011D928A9572
:103A5000E9F76AE370E086E29BE00E9459719E8379
:103A60008D83892B79F4E6E2FBE001900020E9F7F1
:103A70003197E652FB40339708F4B4C088E29BE0EC
:103A80009E838D838D819E8101969E838D836801A7
:103A900010E0ED81FE8180818823D1F01430D9F0CF
:103AA000ED81FE818081803221F43196FE83ED83A9
:103AB000F7CF8D31D1F38C32C1F3882349F01F5FEA
:103AC000CE0105960E946A6AF60181936F01E1CFEB
:103AD0001F3F09F487C0D70111968C91823531F0D0
:103AE000873521F0803509F07AC055C089810E9460
:103AF0009C088C01892B11F486E472C0F701818146
:103B0000823549F5D80151966C91BBE56B9FF00168
:103B10001124E65AF34F01A8F2A9E02D7096A59161
:103B2000B4912C814B81C801FD0109958091260B30
:103B3000823461F481E0D80113968C931397ED9150
:103B4000FC911197808112968C934CC0F8011382DE
:103B50008FEF828347C08091260B823441F4D801D5
:103B6000ED91FC91119713968C9181508083F8010F
:103B700061898BE5689FF0011124E65AF34F01A893
:103B8000F2A9E02D7296A591B4912C814B81C801C8
:103B9000FD01099527C089810E949C08FC01892BA1
:103BA00009F4AACF82898130B9F08B81498193E6EB
:103BB000941B94830388F489E02D815048F0258973
:103BC00036892115310511F423893489F901F5CF9E
:103BD000448382858D7F82878A81838303C08FE1BE
:103BE0000E9466292696E8E00C94EE70A0E0B0E012
:103BF000ECEFFDE10C94D270E0904007F0904107AB
:103C00009E2D981B00913E0710913F07C62FD0E0D4
:103C1000692F70E0C61BD70B0C171D0708F4E801CD
:103C20006E01DD24D0913D07E0913B07F0913C0708
:103C300080819181645D744FA6018D0F911D0E945A
:103C40004971CD0FC0933D07EC0CFD1CF09241076C
:103C5000E0924007C8018C199D0990933F0780931B
:103C60003E07892B21F410923C0710923B07CDB7F9
:103C7000DEB7E8E00C94EE70A6E3B0E0E2E4FEE12B
:103C80000C94D6708C0121E0AE014B5C5F4FBE01FD
:103C9000625D7F4F0E94846981113FC01092240CA5
:103CA0006DA97EA9FB018081882341F18F3529F41C
:103CB000CE0101960E9464710AC09E012F5F3F4FA2
:103CC00040E2CE018E960E944E69811126C0EEA57B
:103CD0008BE5E89FF0011124E65AF34F01A8F2A901
:103CE000E02D7C9625913491BE016F5F7F4FCE0110
:103CF0008E96F9010995811110C00BC06FE270E03A
:103D0000C8010E945971892B21F487E20E9466291B
:103D100004C0CE018E960E943B68E696E4E00C94C7
:103D2000F270A6E7B0E0E7E9FEE10C94D07080E025
:103D30000E94662920911E0B283729F480E20E94F8
:103D400066290C94712720931F0B222359F0E22F30
:103D5000F0E0EB5DF44F80818D3021F48FEF820F26
:103D600080931E0B90911E0B911105C08FE10E9454
:103D700066290C947127E091260BE83511F40C9418
:103D8000BA268091270B843409F01FC10E94C41CFD
:103D90008091260B8D3439F0823509F444C0833488
:103DA00009F00EC130C06AE370E086E29BE00E9439
:103DB0005971892B29F482E20E9466290C9471279B
:103DC00020E0AE01425D5F4FBE016F5F7F4F88E232
:103DD0009BE00E94846981110C947127E9812BE595
:103DE000E29FF0011124E65AF34F01A8F2A9E02D59
:103DF0007A96259134916EA57FA5CE010196F901A1
:103E000009950C94712788E29BE00E943C1EF29970
:103E100002C00C94712761E070E080E090E00E94A5
:103E2000921B0C9471276FE270E086E29BE00E9487
:103E30005971892B29F082E20E9466290C9471271E
:103E400088E29BE0E5969FAF8EAFE597CE018D5857
:103E50009F4F0E945E68E5966EAD7FADE597DB01F2
:103E60009C919A3329F082E20E9466290C94712772
:103E7000DE01A459BF4F8D93082F10E08BE5F82E7B
:103E8000F09EF001F19EF00D1124EB57F34F86E008
:103E900001900D928A95E1F76F5F7F4F9E01225D41
:103EA0003F4F46E0CE0184599F4F0E944E698111D9
:103EB0000C947127AD96EFADAD97FE9EF0011124E5
:103EC000E65AF34F01A8F2A9E02D7C962591349192
:103ED000BE01625D7F4FCE0184599F4FF901099564
:103EE00081110C947127AD96EFADAD97FE9EF00158
:103EF0001124E65AF34F01A8F2A9E02D76962591F8
:103F00003491BE0164597F4FCE01855A9F4FF9010C
:103F1000099581110C9471276C96EFAD6C97FE9EFC
:103F2000F0011124E65AF34F01A8F2A9E02D78968A
:103F300025913491BE016F5F7F4FCE01855A9F4F0F
:103F4000F90109958F3F51F080911B0C81110C9460
:103F500071278FE30E9466290C947127F09EF0016F
:103F6000F19EF00D1124EB57F34F86E0ACE6B0E084
:103F7000AC0FBD1F119601900D928A95E1F7AD9699
:103F8000EFADAD97FE9EF0011124E65AF34F01A864
:103F9000F2A9E02D369625913491BE01625D7F4FE6
:103FA000CE0184599F4FF90109958F3F11F40C946C
:103FB000712740E0682F81E00E9486280C947127C9
:103FC0008EE10E9466290C9471274E2F50E0FA0171
:103FD000E254F109E431F10508F078C7E25CFF4FE3
:103FE0000C94A8700E940F1D7CC7803531F0803D75
:103FF00051F58091280B81500AC00E94C41C88E2B0
:104000009BE09A838983CE0101960E945E6890911D
:10401000590C11E0180F891730F040E0612F8DE442
:104020000E9486285EC78093580CF29B06C061E010
:1040300070E080E090E00E94921B40E0612F82E0FF
:104040000E9486284EC70E94C41C6DE370E086E281
:104050009BE00E945971009741F4E7961FAE1EAE97
:10406000E7978EE10E9466293CC79C012F5F3F4F76
:10407000E7963FAF2EAFE797DC011C9220E0AE0140
:104080004D585F4FBE01625D7F4F87E29BE00E940B
:104090008469811126C7E5968EAD9FADE597FC0139
:1040A0002081211104C082E20E9466291AC70E9461
:1040B0004C688111D6CFE5966EAD7FADE597AE0128
:1040C0004F5F5F4F5A019A0140E2CE018E960E94E7
:1040D0004E69811104C08FE30E94662902C7181639
:1040E0000CF4FFC680E00E9466290E94A6077C01AE
:1040F0000E94A6076C01E114F10409F4F2C6892BB1
:1041000009F4EFC6AE0144595F4F6CE2E7968EADFD
:104110009FADE7970E940870E7969FAF8EAFE79735
:1041200010E0E7968EAD9FADE797009709F42AC19E
:1041300020E0AE014B585F4FBE01655A7F4F0E9491
:10414000846981111FC1E7966EAD7FADE797950138
:1041500040E2CE01855A9F4F0E944E69811112C1E3
:104160008A898770843001F5812F8B7F21F080E46C
:104170000E94662907C16C96EFAD6C975BE5E59FE1
:10418000F0011124E65AF34F01A8F2A9E02D34966C
:10419000A591B49101E020E0A701B501CE01855AB7
:1041A0009F4FFD01099517C0143009F36C96EFADD0
:1041B0006C972BE5E29FF0011124E65AF34F01A81A
:1041C000F2A9E02D25913491A701B501CE01855AC0
:1041D0009F4FF901099580911B0C8111D3C01111DA
:1041E0003DC01A8917708DE2D5011D928A95E9F7B5
:1041F000E5966EAD7FADE59740E150E0C5010E94C8
:104200006B71EEA51430B1F4BBE5EB9FF001112406
:10421000E65AF34F01A8F2A9E02D3496A591B49186
:1042200001E0F7012581A601B501CE018E96FD01C1
:10423000099514C02BE5E29FF0011124E65AF34FD3
:1042400001A8F2A9E02D3296A591B49100E0960163
:10425000412FB501CE018E96FD010995D601139629
:10426000EC91143021F4D70115960C9102C00E2F59
:104270000195D70112968C91129713969C91402F1D
:1042800050E0282F30E0692F70E0261B370B2F5F9E
:104290003F4F241735071CF48F5F082F091B202F71
:1042A00030E08E2F90E040E051E0481B590B421760
:1042B000530714F40E2F0195F60120813181402F10
:1042C00050E0D701ED91FC916E0F7F1F820F931F7D
:1042D0000E944971C6010E94BC08F7018381815088
:1042E000800F8383D60113968C911397800F1396BA
:1042F0008C931397815012968C93828585FF04C00E
:1043000093818281981759F1F7018581882351F0B3
:10431000D7011D96ED91FC911E97C7010995882341
:1043200049F030C0F701838191E0980F9383928127
:10433000891771F3D60115968C911597811104C0D8
:1043400013968C9181118ACFD6011D96ED91FC9127
:104350001E97C6010995882309F480CF13C0C701B1
:104360000E943D080E94A6077C01AE0144595F4FA0
:104370006CE280E090E00E940870E7969FAF8EAFFD
:10438000E797CFCED7011F96ED91FC915097C701CB
:104390000995C6010E943D08A4C58091280B0E9482
:1043A0009C08FC01892B21F486E40E94662999C5AA
:1043B0008289823040F0948183E6891B848303885C
:1043C000F489E02D948313828FEF82838091290BEF
:1043D00020912A0B30912B0B40912C0B50912D0BDF
:1043E0009091270B9235E1F09735A9F1993409F0B6
:1043F0004EC06081718120E031E0DB01A9011D9296
:1044000041505040E1F74081518160912A0B0E9458
:10441000D46E882309F465C58AE40E94662961C5C3
:104420009289923020F48EE40E9466295AC56081F8
:10443000718101E00E94996D882309F452C5813091
:1044400021F484E10E9466294CC540E0682F8AE48B
:104450000E94862846C59289923028F36081718136
:1044600001E00E943E6E813041F008F43AC582308E
:1044700041F48AE10E94662934C589E10E946629D7
:1044800030C540E0682F8AE40E9486282AC58FE163
:104490000E94662926C5933008F423C58D3221F485
:1044A0008091280B803521F08EE10E94662919C584
:1044B000933021F08091290B8F3F19F48091580C93
:1044C0008F5F1092A40A9EE19093A30AE7EBFBE0B2
:1044D000DF011D929A95E9F79DE09093D50B90919D
:1044E000590C981708F4FDC4811108C04FE150E041
:1044F00068EC71E0CF010E942C71F3C4DD24DA94E2
:10450000D80E0D2D10E0BBE5DB9EF0011124E65A1C
:10451000F34FE1A8F2A822E6E21621E0F20629F420
:10452000EF5AFF4F90819F7701C091E09093B70BB6
:1045300092EE9093B80B8093B90B40E150E060EAA3
:1045400070E08AEB9BE00E945271F701389625914A
:10455000349161ED7AE08D2DF90109958111C1C485
:10456000E1EDFAE0AAEBBBE08191882311F08D9395
:10457000FBCF8BE5809FF001819FF00D1124E65A5F
:10458000F34F82859385A485B585A093CA0B90933C
:10459000CB0B8093CC0B81A992A98256914091F4C8
:1045A00083AD94ADA5ADB6AD81509E4FAF4FBF4F1B
:1045B000BC01CD01F9E09695879577956795FA95B9
:1045C000D1F718C086819781A085B1859C01AD0186
:1045D0002150310941095109A0A5B0E00E94BD70E8
:1045E00061157105810541E0940720F06FEF7FEFC1
:1045F0008FEF90E08093D20B7093D30B6093D40B2A
:1046000070C480911D0B823031F040E062E185E1A1
:104610000E94862866C485E00E94490862C4809191
:10462000280B873509F0D1C0963008F45AC4E090C1
:104630002A0BF12CFE2CEE248091290BE80EF11CA4
:1046400057E7E516F10431F480912C0B8F718093BC
:10465000560C47C4C70186509C41029708F441C4D8
:1046600082E0E81688E1F80609F43BC4C0902B0B01
:1046700010924207209100013091010160911C0CC1
:10468000ECE2FBE040E0C41619F15191C901852725
:10469000282F22952827022E269526952025022EA2
:1046A000269520252770082E892F26950794279573
:1046B000902D82270694279590258227823AA8E399
:1046C0009A0719F4503609F468E04F5F9C01DBCF7C
:1046D000309301012093000160931C0C80EC92E068
:1046E000FC013296D490DD2039F1FC0145915491C2
:1046F0004217530711F00496F3CFD0921C0CFC0123
:104700003396859194918823B9F09927880F991F42
:10471000880F991FFC01E057FC4F2591349130938D
:10472000210C2093200CFC01EE56FC4F85919491B6
:1047300090931E0C80931D0C80913B0790913C0739
:10474000892B09F4CCC36C2DC7010E94F61DDD2016
:1047500009F4C7C380913B0790913C07892B09F06E
:10476000C0C307EF11E0F80184918D1129C0319683
:10477000859194919093410780934007F801339677
:10478000E491F0E03196F0933F07E0933E071092FA
:104790003D070E948407DC0190933C0780933B0710
:1047A000892B09F497C31A968C911A9780641A96EC
:1047B0008C931A97F8013496E4911496EC938AC37B
:1047C0000B5F1F4F8111CFCF8CC3853479F49530A7
:1047D00008F487C380912A0B90E0982F88272091B6
:1047E000290B820F911D0E94D21C7BC3823509F0D8
:1047F0005BCE963008F475C3E0902A0BF12CFE2CAA
:10480000EE248091290BE80EF11CF7FE8CC08091FC
:10481000A60B882309F487C08091580C1BE5189FCC
:10482000C0011124865A934FDC019B964D915D91F6
:104830006D917C919E97FC01468B578B608F718F99
:1048400021E046EA5BE063E477E00E94D642811112
:1048500013C0F0E8FF1A80914B0790914C07A0918C
:104860004D07B0914E07811520E89207A105B105CB
:1048700070F5EFE3FE222BC08091580C189FC00109
:104880001124865A934FDC0156961D921D921D925B
:104890001C92599721E046EA5BE063E477E00E94CE
:1048A000D6428823B1F21092700C1092710C1092C3
:1048B000720C1092730C21E046EA5BE063E477E04F
:1048C0008AE59CE00E94D64281112DC0C2CFAC0186
:1048D000BD015F7366277727452B462B472B19F0C1
:1048E0009F73E80EF91EA70160E070E083E497E093
:1048F0000E94F746811117C000912B0B053608F076
:1049000004E610E09E012F5F3F4FA80167EB7BE0BC
:1049100083E497E00E943344811105C089819A8124
:1049200008171907C1F087EE91E0FC012591349139
:104930002115310581F0E216F30659F4FC01329697
:10494000E491E093B70BFC013396E491E093B80B4C
:1049500002C00496EACF87EB9BE09093A20A809373
:10496000A10A1092A40A80912B0B81508093A30A74
:10497000B8C20E94C41C87E29BE09A838983CE015F
:1049800001960E945E68182F6AE370E086E29BE061
:104990000E9459719C0101969A838983232B21F4EB
:1049A00082E20E9466299DC26CE270E00E94597109
:1049B000009719F0DC011D92CD01BBE51B9FF001B2
:1049C0001124E65AF34F01A8F2A9E02D749625911F
:1049D000349169817A81AC01812FF901099581C2F5
:1049E00020931E0B0E94C41C80911E0B823008F481
:1049F000DBCC8091270B8F700E949C088C01009764
:104A000009F4D2CCDC011B96ED91FC911C973097F8
:104A100009F4ACC915962C91222341F180911E0B0B
:104A2000823068F0A091280BB0E0823051F0909174
:104A3000290BB92B833029F050912A0B03C0A1E038
:104A4000B0E051E0251720F483E30E94662949C2B3
:104A5000109709F011975111515030E00E94AE703B
:104A6000252FAB01BC01C80109953BC24091280B21
:104A70005091290B60912A0B70912B0B20E0099526
:104A800030C20E94C41C6DE370E086E29BE00E948D
:104A90005971009741F4E5961FAE1EAEE5978EE181
:104AA0000E9466291EC29C012F5F3F4FE5963FAFD3
:104AB0002EAFE597FC01108220E0AE0144595F4F14
:104AC000BE01625D7F4F87E29BE00E948469811195
:104AD00008C220E0AE014D585F4FBE01655A7F4FBE
:104AE000E5968EAD9FADE5970E9484698111F9C16D
:104AF00046E050E0BE01615D7F4F8BE590E08C0F9A
:104B00009D1F01960E943C71892B21F08EE30E942B
:104B10006629E7C1AE968EAD9FADAE970E944C68F8
:104B20008111BDCFAE966EAD7FADAE97DB018C919E
:104B3000811104C082E20E946629D3C19E012F5FC9
:104B40003F4F40E2CE018E960E944E69811104C013
:104B50008FE30E946629C5C118160CF4C2C180E01B
:104B60000E946629E5966EAD7FADE5979E012F5FA9
:104B70003F4F40E2CE01855A9F4F0E944E698111FE
:104B8000B0C16C96EFAD6C97BBE5EB9FF0011124C3
:104B9000E65AF34F01A8F2A9E02D7E9625913491B3
:104BA000AE964EAD5FADAE97BE016F5F7F4FCE014B
:104BB000855A9F4FF901099594C1933019F48D32AC
:104BC00009F4D4C80E94C41CAE0144595F4F6CE282
:104BD00087E29BE00E940870419A10E0009709F478
:104BE00058C020E0AE01455A5F4FBE01625D7F4F65
:104BF0000E948469EEA52BE5E29FF0011124E65A9C
:104C0000F34F01A8F2A9E02D769625913491BE01CB
:104C1000625D7F4F80E799E0F9010995811161C1DB
:104C20006D966EAD7FAD6D97AE014F5F5F4F7A01B0
:104C300000E220E030E040E050E080E799E00E94B0
:104C4000F16887FD1DC081114CC18A89877086304B
:104C500039F3EEA55BE5E59FF0011124E65AF34F29
:104C600001A8F2A9E02D369625913491B701CE0125
:104C70008E96F90109958F3F09F433C1180FD0CFF3
:104C8000AE0144595F4F6CE280E090E00E940870F2
:104C9000A5CF40E0612F81E00E94862822C18A339F
:104CA00009F44FC060F4823321F130F4803309F409
:104CB0004FC08133A9F05AC0893378F523C08934B5
:104CC00038F48334F8F4813459F0823491F04EC0D2
:104CD0008A34B9F110F18A3C09F048C00E941007EB
:104CE0008DE28093260B82E58093270B0E940F1D97
:104CF000F8C08DE28093260B87E58093270B0E94F6
:104D00000F1DEFC090E0C3979C01220F331F820F4D
:104D1000931F9B5F0E94D21CE4C0923021F489E46F
:104D20000E946629DEC08091280B8B3221F08D32E3
:104D300021F4F09AD6C0F098D4C089E40E94662984
:104D4000D0C084E00E94490889E40E946629C9C055
:104D50008091280B8F718E3149F48091290B9CEF43
:104D6000980F9B3118F48093560CBBC08EE10E94C3
:104D70006629B7C00E94C41C8091270B853401F1BD
:104D800048F48F3309F492C08434E9F18A3209F08F
:104D900091C078C0823509F44BC018F48934B9F158
:104DA00089C0833509F45AC0873509F083C00E9451
:104DB000ED2740E06091560C83E00E94862891C068
:104DC00088E29BE09FA78EA78091280B8B3299F0F9
:104DD0008D3211F4F39810C0CE018E960E946A6A4B
:104DE0009C01853020F08EE10E94662905C0209349
:104DF000230C833008F0F39A40E06091560C83E076
:104E00000E9486286EC08EE10E9466296AC088E2F0
:104E10009BE09FA78EA7CE018E960E946A6A833080
:104E200018F48093510C5DC08EE10E94662959C030
:104E30008091280B8A3379F480911E0B843120F005
:104E400080E20E9466294DC069E27BE086EA9BE031
:104E50000E94647146C01092A60B43C020E0AE01D0
:104E6000425D5F4FBE016F5F7F4F88E29BE00E9413
:104E70008469811136C06EA57FA5CE0101960E947E
:104E8000921B2FC08091280B8B3231F08D3231F084
:104E90008EE10E94662925C0F49A01C0F49840E092
:104EA0006091560C83E00E9486281BC089E00E9416
:104EB000662917C080911E0B813009F0B5CF40E004
:104EC0006091560C83E00E9486280BC08EE10E9400
:104ED000662907C06C2DC7010E94F61D02C0D110C3
:104EE00040CCCA58DF4FEAE00C94EC7089B1809551
:104EF000881F8827881F885F4D9B02C090E001C0F3
:104F000092E0890F0895FF920F931F93CF93DF9341
:104F1000F49A81E08093230C81E1E6EAFBE0DF0173
:104F20001D928A95E9F7339904C080E88093C90DF2
:104F30004FC082E090E00E949D71EC01019609F45F
:104F400045C0F12C02E010E00C171D0738F4C80131
:104F50000E949571F80E0F5F1F4FF6CF81E090E031
:104F60000E949571F81232C085E090E00E94957120
:104F70009EB3977E9EBB9EB3892B8EBB87E090E04D
:104F80000E949571182F0E947627181306C086E09C
:104F900090E00E9495718093560C88E090E00E940A
:104FA00095718093230CCE30D10580F08DE090E098
:104FB0000E9495718093510C6E9740F040E150E053
:104FC0006EE070E086EA9BE00E94857112BC11BC25
:104FD000CDB7DEB7E5E00C94F1701F93CF93DF936C
:104FE0006EE170E082E090E00E94BB716EB3687188
:104FF00085E090E00E94AD716091560C86E090E0F3
:105000000E94AD710E947627682F87E090E00E9491
:10501000AD716091230C88E090E00E94AD716091C9
:10502000510C8DE090E00E94AD71E6EAFBE001904A
:105030000020E9F73197CF01865A9B4041E150E0CB
:10504000481B590B60E070E08A55944F0E945271E2
:1050500040E150E06EE070E086EA9BE00E94A371C0
:1050600010E0C2E0D0E0CE010E949571180F2196A9
:10507000CE31D105C1F7612F81E090E00E94AD7182
:1050800012BC11BCDF91CF911F9108950F931F9314
:10509000CF93DF93DC01FB0180E090E00196249147
:1050A000C22FD0E0042F10E000581F4FC017D107C7
:1050B00021F031962F3F91F702C02F3F29F4CD0107
:1050C00001962FE32C931DC08B01080F191FF801C7
:1050D000249127FF02C00196F7CFCD01F801C491BA
:1050E000C03230F44C2F65EC74E00E94462805C0B5
:1050F000C7FD03C0FC01C08301960F5F1F4FC7FFB0
:10510000EDCFDF91CF911F910F910895A0E0B0E016
:10511000ECE8F8E20C94D370F82ED62EE42E8093AF
:105120001B0CE7EBFBE0F093A20AE093A10A1092BC
:10513000A30A1092A40A84E6DF011D928A95E9F77A
:105140006F2DCF010E94F36FFC018CE28083B3E0EE
:10515000FB125AC0CF01029621E0E21609F43FC0CB
:1051600025E421836091230C0E94F36FFC013196AA
:10517000F39B02C02BE201C02DE2DC012C938AE3F9
:1051800080838EB39AE29183DF01139684FF02C07D
:105190008BE201C08DE28283CAE3CC9389E411964D
:1051A0008C9311976091510CCD0102960E94F36F80
:1051B000FC01C083EC01229622E5218366EA7BE0B4
:1051C000CE010E946471E6EAFBE001900020E9F75D
:1051D0003197CF01865A9B408C0F9D1F48C024E415
:1051E0002183C0E02AE3FC0120836C2F01960E94FA
:1051F000F36F2DE3DC012C936C2F01960E94F36F6B
:10520000CF5FC83079F733C08F010F5F1F4F8F2DED
:105210008F7B893031F5E0E0E801219691E09E0F27
:10522000F0E0EF5CFA4F8491F8018083E92F882346
:1052300011F08E01F1CFF9E0FF1210C0E801EC2F60
:10524000E01B2196F0E0E55EFA4F849190E00E9429
:105250001771FE01319780838111F1CFCE01019743
:1052600006C04F2D68EB73E0C8010E944628CCE2CF
:10527000DC01CC936D2D01960E94F36FFC01C0837D
:105280006E2D01960E94F36FEC018DE08883F3E1AF
:105290008091570CFF1538F429E4F21621F0816053
:1052A0008093570C0AC08E7F8093570C8091570CC7
:1052B0008E7F8093570C0E94DB67C75BDB40C093F7
:1052C000A30ACDB7DEB7E7E00C94EF7040E060E0F2
:1052D0000E948628089580E00E94662980E0089553
:1052E0008091C90D877011F00E94961B9091C90D95
:1052F000892F887093FF0CC08091C90D877F8093A0
:10530000C90D4098419A8091C90D87FDFCCF81E07D
:105310000895CF93DF93D4E0C0E0029B07C00E94C2
:1053200070298823D1F38FEF9FEF18C0C69588E0CE
:105330008A95F1F7019906C0C06804C00E947029DF
:105340008111F1CF029BFACFC69588E08A95F1F7DB
:10535000019BC068D15009F78C2F90E0DF91CF916D
:105360000895FC019081992389F08FE3890F8A3198
:1053700010F4905809C08FEB890F8A3110F4905EB9
:1053800003C09F3F09F49EE79193ECCF0895CF931C
:10539000DF93FB01EC01A881DBE5AD9FD001112477
:1053A000A65AB34F97968C91823031F0833041F0FA
:1053B000813059F481E305C081E3808386E303C033
:1053C00083E3808382E38183329680E2808382E379
:1053D000818381E4828380E0DF91CF9108958EE123
:1053E0000E9466290895CF93DF93EB016EE270E08F
:1053F0000E947A71FC01009719F41982188237C053
:105400000196998388839181903531F0953521F00B
:105410008EEA890F823058F522818381422F50E035
:10542000405351094A30510538F4482F50E0405359
:1054300051094A305105E8F0903529F42235B9F484
:105440008734A9F418C0933529F4253481F48135C3
:1054500071F411C0923529F4253449F48C3439F4AF
:105460000AC0953521F4233511F4823521F080E00E
:1054700003C081E001C082E0DF91CF910895CF9316
:10548000C82F90E00E94FF70892B79F480EE8C0F7A
:10549000823058F08DED8C0F873038F081E0CD32BE
:1054A00029F0CE3219F080E001C081E0CF9108955B
:1054B000A4E0B0E0EEE5FAE20C94D6702BE5829F12
:1054C000C00111240FEF1FEF20E030E0AE014F5F6D
:1054D0005F4F61E070E0865A934F0E947E498111D0
:1054E0000CC089819A81AB81BC81009721E0A20721
:1054F000B10528F08FEF9FEF02C080E090E0249686
:10550000E4E00C94F270962F482F50E042315105A0
:10551000B0F5FA01EE5AFF4F0C94A87080E00E949B
:105520006629089540E062E08EE32CC040E0682FD9
:1055300087E228C040E064E081E224C040E0682FB8
:105540001CC040E068E0992311F084E11BC089E1B0
:1055500019C040E069E08AE115C040E067E009C099
:1055600040E060E106C040E066E088E40BC040E057
:10557000682F8FE307C040E06CE08AE403C043E695
:10558000682F8FE10E9486280895A2E0B0E0EBEC3E
:10559000FAE20C94D4708C01FC01828581FD03C079
:1055A000838181508283F801828190E0458150E0BF
:1055B0004817590774F09C0121503109421B530BC5
:1055C00001962081318160E070E0820F931F0E947C
:1055D0005271F8018581882311F08F5F82837801F1
:1055E000F1E1EF0EF11CF801428150E04150510908
:1055F000608171816E5F7F4F9E012F5F3F4FC701BA
:105600000E945545882321F061E00E94832A0CC046
:10561000F801828190E0019729813A8182179307EE
:1056200059F088E40E946629C7010E94EB46C80130
:105630000E94210881E018C0C8010E94C908F80131
:1056400082858D7F828782E08383828327A58589F7
:105650009689A789B08D821B9109A109B10986831A
:105660009783A087B18780E02296E6E00C94F070E3
:10567000A0E0B0E0EEE3FBE20C94CD70EC014FA5AE
:1056800050E060E070E0898C9A8CAB8CBC8C841A02
:10569000950AA60AB70A8E819F81A885B9858816C2
:1056A0009906AA06BB0661F08E010F5E1F4F480FD8
:1056B000591F6A1F7B1FC8010E94F74681116DC0E8
:1056C000CE80DF80E884F9848C149D04AE04BF048E
:1056D00028F4C818D908EA08FB0803C0C12CD12C4B
:1056E0007601CE010E94C52A782E81115FC0C114B7
:1056F000D104E104F10409F469C08E010F5E1F4F6B
:105700008FA5B501A401480F511D611D711DC80170
:105710000E94F7469A859D7F9A878E829F82A886EF
:10572000B986E881F98191E02D81211101C090E0D5
:1057300091959283E881F98133969DEFDF011D9267
:105740009A95E9F7882319F1498D5A8D6B8D7C8DD7
:10575000C8010E94F746882361F11FC0BFEFCB1636
:10576000D104E104F104B8F48C2D8A838A81C81A2B
:10577000D108E108F1088E5F8B83CE010E94C52A13
:10578000811114C0C114D104E104F104E9F28D8146
:10579000882321F3EACF8EEFE8CF61E00E94832ACD
:1057A000C8010E94EB46CE010E9421087724739421
:1057B0000DC02FA58D899E89AF89B88D821B910957
:1057C000A109B1098E839F83A887B987872DCDB79B
:1057D000DEB7EDE00C94E970A2E0B0E0E2EFFBE2AE
:1057E0000C94D2708C01DC019F962C919F9755965A
:1057F0008D919D910D90BC91A02D821B9109A109C5
:10580000B109F80186839783A087B1874581442336
:1058100011F050E002C04EEF50E0D8016D917C9144
:105820006E5F7F4F9E012F5F3F4FC80141960E94E0
:105830003344882341F061E00E94832AC8010E941A
:10584000210881E052C089819A81892B81F481E00D
:1058500090E09A838983D801ED91FC911197159678
:105860008C91811102C08DE001C08FEF828382E0B4
:10587000F801838329813A8181E0820F82838581C7
:10588000811107C0D8011A969C912E3F3105A0F4D2
:1058900023C0F80140815181D80112969C91129742
:1058A000FA01E90FF11D60816111ECCF9150129660
:1058B0009C93923088F7E6CFF801C18CD28CE38CB0
:1058C000F48C458956896789708DC416D506E6061D
:1058D000F70611F0882331F09062D8011A969C9354
:1058E00080E003C09F7DF80192872296E8E00C9447
:1058F000EE708F929F92AF92BF92CF92DF92EF9213
:10590000FF921F93CF93DF93EC016A017B01122F6B
:105910008FA54A015B01880E911CA11CB11C8A85D0
:1059200084FD0AC0898D9A8DAB8DBC8D8815990533
:10593000AA05BB0518F106C0CE010E94382B8823AA
:1059400089F314C07E0181E1E80EF11CB501A401C8
:10595000C7010E94F746882359F060E00E94832A1D
:10596000C7010E94EB46CE010E94210881E027C0BA
:10597000CE010E94EC2B882399F0F8CFE881F981C1
:105980008D81811102C08DE001C08FEF828382E0A2
:105990008A83CE82DF82E886F98682E30E946629C6
:1059A00082E0810F8B838A81212F30E02F5F3F4F70
:1059B000482F50E0241735070CF08B8380E0DF91EF
:1059C000CF911F91FF90EF90DF90CF90BF90AF905D
:1059D0009F908F900895FC012581468157816085B5
:1059E0007185420F511D611D711D20E00E94792CAF
:1059F0000895A0E0B0E0EFEFFCE20C94D0707C01E1
:105A00008B01EA016B01CB010E94B129D80190966C
:105A10008C91882319F0B0E2CB0ED11CF7014181A3
:105A2000528163817481E0818BE58E9FF0011124A6
:105A3000E65AF34F468B578B608F718F5E01F1E111
:105A4000AF0EB11CD7019C91899FC001112421E0A8
:105A5000A601B501865A934F0E94D642882321F0B1
:105A600061E00E94832A20C0F801838D823049F4CE
:105A70004AE150E060E070E0C5010E94F7468AE12B
:105A80008FA78A8529E53DE2388B2F872CEE3BE2F4
:105A90003E872D8729E73CE23C872B878460806422
:105AA0008A87CE010E94EC2BCDB7DEB7EAE00C94DA
:105AB000EC701F93CF93DF93EC019A85892F81704F
:105AC00090FF1AC093FD11C0CE0141960E94EB4693
:105AD000182F61E00E94832A88E197E0988B8F87D6
